:060000000200CD021422F3
:03000B0002142BB1
:03001300021434A0
:03001B0002143D8F
:030023000214467E
:03002B0002144F6D
:030033000214585C
:03003B000214614B
:0300430002146A3A
:03004B0002147329
:0300530002147C18
:03005B0002148507
:0300630002148EF6
:03006B00021497E5
:030073000214A0D4
:03007B000214A9C3
:030083000214B2B2
:10008B000214C102182AE49000AA78617901800257
:10009B00F0A3D8FCD9FA7A807B009000DF782B791B
:1000AB00018015E493A3AD82AE838A828B83F0A388
:1000BB00AA82AB838D828E83D8E9D9E712130612FD
:1000CB00182675D0007581BF75108075910053A2ED
:1000DB00FE020091010000000F0000000400000070
:1000EB001000000018000000020B000000010000CF
:1000FB00803F0000C842000000000000803FC3E7C3
:10010B00960809E7960809E7960809E79622C3E0DF
:10011B009608A3E09608A3E09608A3E09622C008F1
:10012B00C3E096F50808A3E096420808A3E09642C0
:10013B000808A3E09645087001D3D00822080808E8
:10014B00E630E711120913120160080808C6448053
:10015B00C618181822181818E9799EC608CAC608B6
:10016B00CBC608CCC6C370207996CACBCC70197994
:10017B008ECBCC70137986CC700EF9802ACA33CA19
:10018B00CB33CBCC33CC331930E7F2CCCBCA335097
:10019B00147004EA30E00DE4CA3ACACB3BCBCC3C3A
:1001AB00CC500209C3E913C6CC182313C6CB18C60F
:1001BB00CA18C6F92212020020F01430E72B74FF84
:1001CB00FCFBFA747F8022E4FCFBFA7480801AB487
:1001DB008008BC00F2BB00EF800F50EBF9E4C39A30
:1001EB00FAE49BFBE49CFCE499C6CC18C6CB18C67E
:1001FB00CA18C6F922E4C9C608CAC608CBC6D33387
:10020B000308CCC63392F0C3947F402E9418401948
:10021B00C9B90704CACBCC225025C309CA33CACBF0
:10022B0033CBCC33CC33D9F422F4600DC9CCC3130C
:10023B00CB13CBCA13CAD9F6CC22E4FCFBFA22149B
:10024B00FCFBFA22E62618461846184622E7271921
:10025B00471947194722181818E60846087009E687
:10026B0026087005E633F4220822191919E7094705
:10027B00097009E727097005E733F4220922E6081C
:10028B004608C3134608336002E633F422E70947F6
:10029B0009C3134709336002E733F4221202896062
:1002AB0025120298602012024F70030202580808B0
:1002BB0008E76670101819E766700A1819E7667078
:1002CB00041819E76622F422120289601C120298A4
:1002DB00601712024F70071202587001D322C0D060
:1002EB001202587006D0D0B322C32233D0D0501490
:1002FB0030E0F6C3E7960809E7960809E796080980
:10030B00E796B32220E0D5E6970809E6970809E6B9
:10031B00970809E697B322120289601B12029860B4
:10032B001612024F7007120258600CB322C0D01283
:10033B0002587005D0D022C32233D0D0501330E0F6
:10034B00EBC3E7960809E7960809E7960809E796CD
:10035B002220E0E4E6970809E6970809E6970809E2
:10036B00E6972200120289604F1202986012E7543E
:10037B008066F61202617011120258703B0909096E
:10038B00F4F618F618F618F622120275701512020A
:10039B004F08080860EAE6447FF618768018E4F602
:1003AB0018F62212024F60161202587012E4F60869
:1003BB00F608F608E65480F609090918181822EA17
:1003CB00C0E0EBC0E0ECC0E0EDC0E0E687F0A4FBE2
:1003DB00ACF008E687F0A42CFCE435F0FA1809E63B
:1003EB0087F0A42C4B60027401CA35F0FCE433FB9C
:1003FB0009E687F0D2F7A42CCB35F0FC1908E68779
:10040B00F0A42BCC35F0FBE433FD0819E687F0D2D2
:10041B00E7A42C4ACB35F0CD3400FC09E687F0D2AB
:10042B00E7A42DCC35F0FDE433FA0918E687F0D2BA
:10043B00F7A42CCD35F0CA3400FC08E687F0D2E7E0
:10044B00D2F7A42ACC35F07A7E20E70B0ACB33CB3C
:10045B00CD33CDCC33CC33CB3350147004ED30E0F3
:10046B000ED2F1E4CD3DCDCC3CCC3B5005DA05C2F0
:10047B00F1EB547FC63308E63392F0FBE73309E721
:10048B0033C39A502D2B70190C0D4C4D701518064B
:10049B00E608C333700D20F10AA2F013F6E41880BE
:1004AB000B4024E4F630F002768018F618F618F6B6
:1004BB008024D33B14501074FFA2F013F6187680EF
:1004CB00E418F618F6800FA2F013F618E63303F6CD
:1004DB0018ECF618EDF6D0E0FDD0E0FCD0E0FBD048
:1004EB00E0FA221202986046120289603DE96870B8
:1004FB0008F618F618F618F622748067F71205221C
:10050B00090909748067F722120289601D1202988B
:10051B007005191919801A120261701F120275C326
:10052B007003E667331919194007181818220808C1
:10053B000874FFF618F618F618F6221202756017F3
:10054B00120258702192F012024F7019501720F0BE
:10055B0014080808090909E7F61819E7F61819E746
:10056B00F61819E7F62212024F60E6E869701F08C9
:10057B0008E62480F608E436F618547FB47F0CE6C0
:10058B0054806007F6E418F618F622181822E9C60C
:10059B00CC08C6CD08C6CE08C6CFC0E0E8C0E0EA9E
:1005AB00C0E0EBC0E009E9F809E7FA09E7FBE6F977
:1005BB0018E6F8C3EC98ED99EE9AEBC2E7F5F0EF7D
:1005CB00C2E795F0500E600CEBCFFBEACEFAE9CD0B
:1005DB00F9E8CCF8EAA2E7D2E7FAEB33FB13F5F034
:1005EB00EEA2E7D2E7FEEF33FFC5F013A2E730E64A
:1005FB0001B313C5F0C3C0E0C0F07F00C39BFB6029
:10060B005E9418600F401D14601AD0E023F9D0E0FF
:10061B00F80206F48AF0E9486003D2F0E4AFF0FA8E
:10062B00F9F8803BEB30E40D89F0EA6003D2F0E49B
:10063B00AFF0F9CAF8EB30E30D88F0EF6002D2F0BF
:10064B00AFF0E4CAC9F8EB54076014FBC3EA13FA22
:10065B00E913F9E813F8EF135002D2E0FFDBEDD00A
:10066B00E0C0E030E739C3E49FFFF5F0EC98FC42C3
:10067B00F0ED99FD42F0EE9AFE42F0D0E0F9D0E0B9
:10068B00F8E5F0607AE923F9EE20E742D8028067BB
:10069B00C3EF33FFEC33FCED33FDEE33FE80EAECBE
:1006AB0028FCED39FDEE3AFED0E023F9D0E0F8401E
:1006BB0002801BC3EE13FEED13FDEC13FCEF135086
:1006CB0002D2E0FF08B800067F7F74FF802EEF3365
:1006DB0050178CF020F00260100CBC000C0DBD000C
:1006EB00080EBE000408E860DFE933E813FFEE23D1
:1006FB0013FE4F4D4C8008E95480FFE4FEFDFCEEE9
:10070B0033EF33F47004FCFD7E80D0E0FBD0E0FAD5
:10071B00D0E0F8D0E0CFC618CEC618CDC618CCC6E0
:10072B00F922120289700418181822120298700DFF
:10073B0074FFF61819F61819F61819F622E75480F3
:10074B0066F612024F700F12025870F014F608F68C
:10075B0008F608F680D1120258700CF608F60876E7
:10076B008008E6447F80EC120278700C1202646001
:10077B00BFE65480F6E480BB1202647005191919A8
:10078B0080A5E869700C763F18768018F618F6E8A5
:10079B00F922E6CDC0E018ECC0E0E633CD33CDD383
:1007AB0013F6E719FCE7191933CC33C3947F400ECA
:1007BB00CD9D502408E65480F6E418F6800FF4041F
:1007CB003D14501408E6447FF6187680E418F618AA
:1007DB00F6D0E0FCD0E0FD22CCD313CCFD18E4C660
:1007EB00CBC0E018E4C6CAC0E00808ED08C633E683
:1007FB0013F618E433C675F003C3CA97CA09CB972F
:10080B00CB199C40047D08802EBD00030208D61630
:10081B00B6FF050606081618C3CA33CACB33CB334B
:10082B00CA27CA09CB37CB193CC37D08803E187D3C
:10083B000820E75CC633C6CA33CACB33CB33DDF1F2
:10084B00D5F0EB30E77BCA97CA09CB974ACB199CFB
:10085B00406F4B7025E620E0218066187D08C3CAE7
:10086B0097CA09CB97CB199CD3C633C6CA33CACB0D
:10087B0033CB3350C9DDE7D5F0E1D3E4C636C60838
:10088B00C636C608C636C608C636C618181880310E
:10089B00C3CA97CA09CB97CB199CB34097C633C62B
:1008AB00CA33CACB33CB33DD34D5F02EC6A2E0C668
:1008BB0040C8CA27CA09CB37194A70BECB3CB48093
:1008CB00B90808E63308E633601F181818D0E0FAA9
:1008DB00D0E0FBD0E0FCD0E0FD22187D08CA27CA8F
:1008EB0009CB37CB193CD3808013F618E4B67F11B4
:1008FB00F618B6FF0EF618C60470D208087680807C
:10090B00CAF618F618F680C5181818E4C396F60838
:10091B00E496F608E496F608E496F622E026F60846
:10092B00A3E036F608A3E036F608A3E036F622E09D
:10093B0026F008A3E036F008A3E036F008A3E03673
:10094B00F022C3E697F60809E697F60809E697F64C
:10095B000809E697F622C3E0C696F608A3E0C6960A
:10096B00F608A3E0C696F608A3E0C696F622E0F6D4
:10097B0008A3E0F608A3E0F608A3E0F622E6F008E9
:10098B00A3E6F008A3E6F008A3E6F022E0FAA3E062
:10099B00FBA3E0FCA3E0FD22E0F8A3E0F9A3E0FA5F
:1009AB00A3E0FB22E8F0A3E9F0A3EAF0A3EBF0222B
:1009BB00CAC0E0E6F30908DAFAD0E0FA22600D08C3
:1009CB00C6A2E713C618C613C6D5E0F322700422DD
:1009DB00600D18C6C333C608C633C6D5E0F418225B
:1009EB00E47353A2FED083D0822510F8C510C398B0
:1009FB0024FBCEF208E520F208E9C0E07908E7090C
:100A0B00F208DEFAD0E0F9EFF208D0E0FED0E0F227
:100A1B0008EEF208E473A810E2FE08E208F520E9FC
:100A2B00C0E07908E208F709DFFAE208FFD0E0F945
:100A3B00E208C0E0E208C0E0881053A2FE22C0D05A
:100A4B00C0F088F02510F8C510C39824F2C0E0E57B
:100A5B00F0F208E9F208EAF208EBF208D0E0FB79D1
:100A6B0008E709F208DBFAE5A2F20853A2FEE582D9
:100A7B00F208E583F208D0E0F208D0E0F208E520B6
:100A8B00F208ECF208EDF208EEF208EFF222A810F1
:100A9B00E208C0E0E208C0E0E208FAE208FB7908ED
:100AAB00E208F709DFFAE2F5F00853A2FEE208F5D7
:100ABB0082E208F58385F0A2E208F5F0E208F5D0B2
:100ACB00E208F520E208FCE208FDE208FEE208FF7E
:100ADB008810D0E0F9D0E0F8D0E03205A2E582F240
:100AEB0008E583F253A2FE2205A2E208F582E2F5A5
:100AFB008353A2FE227401C9C0E0E510C399F5101F
:100B0B00C91209BBD0E0F92274F71209ED151015C3
:100B1B0010A810120AE69000C7C3E094E8A3E09473
:100B2B00035003020C021212738A088B09AE08AF32
:100B3B0009121269EEFAEFFB120C8A8A088B09AEC6
:100B4B0008AF09EEFAEFFB120CF48A088B09AE081A
:100B5B00AF09EEFAEFFB120D51E9F8740168706200
:100B6B009000B378081209799000AF780812011938
:100B7B0050429000B305A29000AF7808120979900B
:100B8B000088780812092705A27808120129401459
:100B9B009000AB7400F0A37400F0A37400F0A37486
:100BAB0000F0801090008078081209799000AB78E3
:100BBB000812093A9000B31209A39000AF1209AFC3
:100BCB0080309000B305A29000AF7808120979909D
:100BDB000088780812092705A2780812012940120B
:100BEB009000AB7400F0A37400F0A37400F0A37436
:100BFB0000F0120C2880189000C7E02401F0A3E04D
:100C0B003400F09000B31209A39000AF1209AFA803
:100C1B0010120AF3051005107F04020A2174F71253
:100C2B0009ED15101510A810120AE690008478082B
:100C3B001209799000AB780812011950089000AA9C
:100C4B007400F0802C90009005A29000AB780812F5
:100C5B00097990008C780812096105A278081201B5
:100C6B002940089000AA7401F080069000AA740233
:100C7B00F0A810120AF3051005107F04020A217464
:100C8B00F31209ED9000C9E0F8A3E0F9EAC398F577
:100C9B0008EB99F509E5093395E0F50AF50B7808AA
:100CAB001201489000BF780C1209797808790C1260
:100CBB00036E9000C9E0F50CA3E0F50DE4F50EF51D
:100CCB000F780C1201637808790C1205137808124F
:100CDB0001C09000C9E508F0A3E509F09000C9E058
:100CEB00FAA3E0FB7F08020A2174F31209ED9000CE
:100CFB00CDE02AFCA3E03BFD9000CBE0F8A3E0F9AC
:100D0B00ECC398F508ED99F509E4F50AF50B7808AD
:100D1B001201639000BF780C1209797808790C12D4
:100D2B00036E78081201C09000CDE508F0A3E50929
:100D3B00F09000CBEAF0A3EBF09000CDE0FAA3E04B
:100D4B00FB7F08020A2174FA1209ED75080078017D
:100D5B007900EA2414FEE43BFF9000CFE0FCA3E013
:100D6B00FDC3EE9CEF9D50119000D1E06508702BF8
:100D7B00E89000D1F0790180229000CFE02414FCA0
:100D8B00A3E03400FDC3EC9AED9B500F9000D1E033
:100D9B00687008E5089000D1F079019000CFEAF077
:100DAB00A3EBF07F01020A2174F31209ED7A0579A6
:100DBB000412117079011212581212699000B77453
:100DCB0036F0A3746FF0A37439F0A3743AF090006B
:100DDB00BB746FF0A37412F0A37483F0A3743AF096
:100DEB009000BB7808120979C008C009C00AC00B73
:100DFB009000B7780C1209799000BB78081209792A
:100E0B00780C7908120513D00BD00AD009D00878CA
:100E1B0008790C12072D9000BF78081209889000F2
:100E2B00C3741DF0A3749DF0A374D0F0A3743AF0B7
:100E3B009000BB7808120979C008C009C00AC00B22
:100E4B009000C3780C1209799000BB7808120979CD
:100E5B00780C7908120513D00BD00AD009D008787A
:100E6B0008790C12072D9000BF78081209887F08AB
:100E7B00020A2174F71209ED9000807808120979A3
:100E8B009000B3780812093A120B137F04020A215F
:100E9B0053A2FE9000AAE0F953A2FE2274F31209AA
:100EAB00ED7901C9FCC990009A7808120979900074
:100EBB009E780C1209797808790C12036E78081257
:100ECB0001C0AA08AB09CCF9CC1210D97F08020AD1
:100EDB002174F31209ED900109E0640170057900AA
:100EEB001210CA7508017808120B007C007D007A7D
:100EFB00647B00790412100D051079011210CA9051
:100F0B00010478081209799000A2780C12097978FB
:100F1B0008790C1202A77012900104746FF0A3747D
:100F2B0012F0A37483F0A3743AF09001097401F0EA
:100F3B007F08020A21C00853A2FE900109E0640158
:100F4B00700579001210CA7508027808120B007C24
:100F5B00327D007A647B00790412100D0510790143
:100F6B001210CA9001097401F0D00853A2FE22E9B5
:100F7B0053A2FE900108F053A2FE2274F31209ED66
:100F8B00900108E06401703A90009A780812097990
:100F9B009000A6780C1209797808790C1202D340CC
:100FAB005C90009A7808120979900104780C120968
:100FBB00797808790C12051390009A780812098831
:100FCB00803890009A7808120979900080780C127A
:100FDB0009797808790C120322402290009A78083C
:100FEB00120979900104780C1209797808790C129E
:100FFB0004EE90009A7808120988120EA77F080257
:10100B000A21EEC0E0E9FED2DC538EBFEEF452DFD4
:10101B00EE42DFEAF8EBF9E4C9F8E8F5D1EAF5D9E5
:10102B00E510F8E2FAEAA2E0501353B3FB53B4FB1A
:10103B00ECF8EDF9E4C9F8E8F5D2ECF5DAEAA2E15F
:10104B00501353B3FD53B4FDECF8EDF9E4C9F8E8D4
:10105B00F5D3ECF5DBEAA2E2501353B3FE53B4FE27
:10106B00ECF8EDF9E4C9F8E8F5D4ECF5DCEAA2E329
:10107B00501353B1FE53B2FEECF8EDF9E4C9F8E8A6
:10108B00F5D5ECF5DDEAA2E4501353B1FD53B2FDF7
:10109B00ECF8EDF9E4C9F8E8F5C4ECF5CCEAA2E517
:1010AB00501353B1F753B2F7ECF8EDF9E4C9F8E884
:1010BB00F5C5ECF5CDEA42DED0E0FE53A2FE22747C
:1010CB0001697004D2DF8002C2DF53A2FE22EEC0A0
:1010DB00E0E9FEA2DE40FCEEA2E0500DEAF8EBF9EF
:1010EB00E4C9F8E8F5D2EAF5DAEEA2E1500DEAF838
:1010FB00EBF9E4C9F8E8F5D3EAF5DBEEA2E2500D23
:10110B00EAF8EBF9E4C9F8E8F5D4EAF5DCEEA2E38A
:10111B00500DEAF8EBF9E4C9F8E8F5D5EAF5DDEEA0
:10112B00A2E4500DEAF8EBF9E4C9F8E8F5C4EAF5E6
:10113B00CCEEA2E5500DEAF8EBF9E4C9F8E8F5C5F9
:10114B00EAF5CDD2DEEEFA790112115ED0E0FE5354
:10115B00A2FE227401697005EA42DE8004EAF452B1
:10116B00DE53A2FE2274FA1209EDE9FFEAFEEEF954
:10117B0012119374046F600BEFC454F0543042E8B7
:10118B0043E1027F01020A21E960211460301460FF
:10119B004014604D14605E14606E14607F14700315
:1011AB0002123B14700302124F02125453E8F04325
:1011BB00B38053B47F75F60043F60102125453E823
:1011CB00F0D2E843AC0153ADFE75F60043F6028056
:1011DB007853E8F0D2E943B18053B27F75F60080C3
:1011EB006853E8F043E80343B14053B2BF75F600D0
:1011FB0043F608805453E8F0D2EA43B12053B2DFF0
:10120B0075F60043F610804153E8F043E80543B10F
:10121B001053B2EF75F60043F620802D53E8F043E0
:10122B00E80643B10853B2F775F60043F640801950
:10123B0053E8F043E80743B30253B4FD75F600439C
:10124B00F6808005D2EB53E8F853A2FE22740169B5
:10125B00700543E101800353E1FE53A2FE22A2EE8F
:10126B004002D2EE53A2FE22C008C009A2EE40FCFF
:10127B00E5C3F508750900740478081209D8E5C2AE
:10128B00F87900E8540FF8E95400F9E50848F50837
:10129B00E50949F509AA08AB09D009D00853A2FE04
:1012AB002212130012178E120EDC120DB3790112DB
:1012BB00170079001213BC790112151553A2FE22E7
:1012CB0012176BE9640170077A2A7B171215F71254
:1012DB0013E9E970077A867B0F1215F77A2D7B15C8
:1012EB001215F77AF57B131215F77A7E7B0E121512
:1012FB00F753A2FE22D2AF53A2FE221212AC12124D
:10130B00CB7BC07A20790112167E75080075090017
:10131B00750A00750B00800B1217AA8A088B098CB3
:10132B000A8D0B1217AA8A0C8B0D8C0E8D0F780859
:10133B00790C12010940E105A29000951217AA8AB7
:10134B000C8B0D8C0E8D0F780C790812094D05A2A4
:10135B00780C12012950CC1217AA8A088B098C0A17
:10136B008D0B12163080BCEEC0E0EBFE53A2FE904C
:10137B0000D4E064017007EEF912139B800B900010
:10138B00D4E07005EEF9120F7AD0E0FE53A2FE22E4
:10139B00EEC0E0E9FE74016E70097A047901121651
:1013AB00D680077A0479011216EBD0E0FE53A2FE29
:1013BB0022EEC0E0E9FE74016E700B7BD07A0479EB
:1013CB000112167E8003120EDC7BA07A20790112AB
:1013DB00167EEE9000D4F0D0E0FE53A2FE2253A274
:1013EB00FE9000D4E0F953A2FE2212154FE9FB7ACE
:1013FB0004790112137212140853A2FE2212154F14
:10140B00E970097A2079011216D680077A207901C2
:10141B001216EB53A2FE22C0D0C0A2D0A2D0D03263
:10142B00C0D0C0A2D0A2D0D032C0D0C0A2D0A2D047
:10143B00D032C0D0C0A2D0A2D0D032C0D0C0A2D0A7
:10144B00A2D0D032C0D0C0A2D0A2D0D032C0D0C097
:10145B00A2D0A2D0D032C0D0C0A2D0A2D0D032C0A5
:10146B00D0C0A2D0A2D0D032C0D0C0A2D0A2D0D0F7
:10147B0032C0D0C0A2D0A2D0D032C0D0C0A2D0A295
:10148B00D0D032C0D0C0A2D0A2D0D032C0D0C0A257
:10149B00D0A2D0D032C0D0C0A2D0A2D0D032C0D037
:1014AB00C0A2D0A2D0D032C0E074F1120A491217F8
:1014BB00B77F01020A99C0D0C0A2D0A2D0D03253BC
:1014CB00A2FE900099E064017023E970399000D579
:1014DB00E0640170319000D6E0640170089000D692
:1014EB007400F080219000D67401F080199000995F
:1014FB00E0701374016970089000D67401F08006D7
:10150B009000D67400F053A2FE2253A2FE9000D599
:10151B007400F09000D67400F0E9900099F053A29B
:10152B00FE22EEC0E0120E9BE97E0070047E00806E
:10153B00027E01EEF91214CAEEF912155BD0E0FE31
:10154B0053A2FE2253A2FE9000D6E0F953A2FE2234
:10155B00E953A2FE9000D5F053A2FE22E9600514D8
:10156B0060268046EBA2E75016EBA2E65009EAF4A0
:10157B0052B1EA42B28033EA42B1EA42B2802BEA7C
:10158B0042B1EAF452B28022EBA2E75016EBA2E68C
:10159B005009EAF452B3EA42B4800FEA42B3EA428A
:1015AB00B48007EA42B3EAF452B453A2FE22E960D4
:1015BB00051460078008EA42808003EA429053A238
:1015CB00FE22E96005146008800AEAF45280800468
:1015DB00EAF4529053A2FE22E960051460078008DA
:1015EB00EA62808003EA629053A2FE2253A2FE902D
:1015FB0000FFE0F87900E875F002A4C8ACF075F0D4
:10160B0000A42CFC75F002E9A42CF974D728F58200
:10161B00740039F583EAF0A3EBF09000FFE02401AE
:10162B00F053A2FE22EEC0E07E0080337A007B00F6
:10163B00EEF87900E875F002A4C8ACF075F000A4E0
:10164B002CFC75F002E9A42CF974D728F5827400F0
:10165B0039F583E0F8A3E0F58388821209EB0E538A
:10166B00A2FE9000FFE0F8EEC39840C0D0E0FE531E
:10167B00A2FE2274FA1209ED8908EAFFEBFEEEFBDB
:10168B00EFFAA9081215677F01020A2174FA1209F1
:10169B00EDE9FFEAFEEEFAEFF91215B97F01020A46
:1016AB002174FA1209EDE9FFEAFEEEFAEFF91215D1
:1016BB00CD7F01020A2174FA1209EDE9FFEAFEEE71
:1016CB00FAEFF91215E37F01020A2174FA1209ED00
:1016DB00E9FFEAFEEEFAEFF91216AC7F01020A21DE
:1016EB0074FA1209EDE9FFEAFEEEFAEFF91216971A
:1016FB007F01020A21EEC0E0E9FE74016E700B7BE4
:10170B00C07A02790112167E8006EE7003120F402A
:10171B00EE53A2FE9000D2F0D0E0FE53A2FE225375
:10172B00A2FE9000D2E064017032900094E064FF5E
:10173B0070097A0279011216AC80219000D3E02453
:10174B0001F0900094E0F89000D3E0C398400D9026
:10175B0000D37400F07A0279011216C153A2FE2253
:10176B0053A2FE9000D2E0F953A2FE227A647B00D2
:10177B0079041217F379011217E279011217D15379
:10178B00A2FE2253A2FE9001007400F0A37400F09D
:10179B00A37400F0A37400F012177753A2FE225328
:1017AB00A2FE90010012099753A2FE2274F71209B0
:1017BB00ED900080780812097990010078081209E1
:1017CB003A7F04020A21740169700543C40880033F
:1017DB0053C4F753A2FE227401697005439C028027
:1017EB0003539CFD53A2FE22C008C009740759F88D
:1017FB00E5C454F848F5C474FFC39AF50874FF9B0D
:10180B00F509740878081209C8E508F5C674FFC312
:10181B009AF5C5D009D00853A2FE2212008E228061
:01182B00FEBE
:0000CD0132
:00000001FF
