:100000000200320201B67A807B00900044780979C0
:10001000018015E493A3AD82AE838A828B83F0A323
:10002000AA82AB838D828E83D8E9D9E71201971219
:1000300001B275D0007581BF750C8075910053A217
:10004000FE020006FFFFFFFFC8000000E026F608E2
:10005000A3E036F608A3E036F608A3E036F622E081
:10006000FAA3E0FBA3E0FCA3E0FD2253A2FED083B1
:10007000D082250CF8C50CC39824FBCEF208E520ED
:10008000F208E9C0E07908E709F208DEFAD0E0F901
:10009000EFF208D0E0FED0E0F208EEF208E473A838
:1000A0000CE2FE08E208F520E9C0E07908E208F772
:1000B00009DFFAE208FFD0E0F9E208C0E0E208C098
:1000C000E0880C53A2FE22E960051460268046EB0E
:1000D000A2E75016EBA2E65009EAF452B1EA42B2A6
:1000E0008033EA42B1EA42B2802BEA42B1EAF452EA
:1000F000B28022EBA2E75016EBA2E65009EAF452D6
:10010000B3EA42B4800FEA42B3EA42B48007EA425B
:10011000B3EAF452B453A2FE22E9600514600780EA
:1001200008EA62808003EA629053A2FE2274F7120A
:10013000006B8A088B098C0A8D0B538EF74389015B
:10014000D28C8014758ACA758CFAA28D50FCC28D2F
:10015000900080780812004CE5084509450A450BD7
:1001600070E2C28C7F0402009F74FA12006B89084F
:10017000EAFFEBFEEEFBEFFAA9081200C77F0102CF
:10018000009F74FA12006BE9FFEAFEEEFAEFF91233
:1001900001197F0102009F7BE07A20790112016939
:1001A0007A20790112018290008412005F12012DE1
:0801B00080EE1200032280FE24
:00003201CD
:00000001FF
