:060000000200BD020152E6
:03000B0002015B94
:0300130002016483
:03001B0002016D72
:0300230002017661
:03002B0002017F50
:030033000201883F
:03003B000201912E
:0300430002019A1D
:03004B000201A30C
:030053000201ACFB
:03005B000201B5EA
:030063000201BED9
:03006B000201C7C8
:030073000201D0B7
:03007B000201D9A6
:030083000201E295
:10008B000201EB0202E37A807B009000CF780979C2
:10009B00018015E493A3AD82AE838A828B83F0A398
:1000AB00AA82AB838D828E83D8E9D9E71202C41260
:1000BB0002DF75D0007581BF750C8075910053A25E
:1000CB00FE020091FFFFFFFFC8000000E026F608CC
:1000DB00A3E036F608A3E036F608A3E036F622E0F6
:1000EB00FAA3E0FBA3E0FCA3E0FD2253A2FED08326
:1000FB00D082250CF8C50CC39824FBCEF208E52062
:10010B00F208E9C0E07908E709F208DEFAD0E0F975
:10011B00EFF208D0E0FED0E0F208EEF208E473A8AC
:10012B000CE2FE08E208F520E9C0E07908E208F7E6
:10013B0009DFFAE208FFD0E0F9E208C0E0E208C00C
:10014B00E0880C53A2FE22C0D0C0A2D0A2D0D032E5
:10015B00C0D0C0A2D0A2D0D032C0D0C0A2D0A2D02A
:10016B00D032C0D0C0A2D0A2D0D032C0D0C0A2D08A
:10017B00A2D0D032C0D0C0A2D0A2D0D032C0D0C07A
:10018B00A2D0A2D0D032C0D0C0A2D0A2D0D032C088
:10019B00D0C0A2D0A2D0D032C0D0C0A2D0A2D0D0DA
:1001AB0032C0D0C0A2D0A2D0D032C0D0C0A2D0A278
:1001BB00D0D032C0D0C0A2D0A2D0D032C0D0C0A23A
:1001CB00D0A2D0D032C0D0C0A2D0A2D0D032C0D01A
:1001DB00C0A2D0A2D0D032C0D0C0A2D0A2D0D03238
:1001EB00C0D0C0A2D0A2D0D032E960051460268066
:1001FB0046EBA2E75016EBA2E65009EAF452B1EA3D
:10020B0042B28033EA42B1EA42B2802BEA42B1EA0F
:10021B00F452B28022EBA2E75016EBA2E65009EAA9
:10022B00F452B3EA42B4800FEA42B3EA42B4800715
:10023B00EA42B3EAF452B453A2FE22E96005146019
:10024B00078008EA62808003EA629053A2FE227460
:10025B00F71200F68A088B098C0A8D0B538EF74325
:10026B008901D28C8014758ACA758CFAA28D50FCC8
:10027B00C28D90008078081200D7E5084509450A21
:10028B00450B70E2C28C7F0402012A74FA1200F64D
:10029B008908EAFFEBFEEEFBEFFAA9081201F47FE7
:1002AB000102012A74FA1200F6E9FFEAFEEEFAEFF8
:1002BB00F91202467F0102012A7BE07A20790112B2
:1002CB0002967A2079011202AF9000841200EA1292
:0A02DB00025A80EE12008E2280FE0F
:0000BD0142
:00000001FF
