:060000000200CD021424F1
:03000B0002142DAF
:030013000214369E
:03001B0002143F8D
:030023000214487C
:03002B000214516B
:0300330002145A5A
:03003B0002146349
:0300430002146C38
:03004B0002147527
:0300530002147E16
:03005B0002148705
:03006300021490F4
:03006B00021499E3
:030073000214A2D2
:03007B000214ABC1
:030083000214B4B0
:10008B000214C302182CE49000AA78617901800253
:10009B00F0A3D8FCD9FA7A807B009000DF782B791B
:1000AB00018015E493A3AD82AE838A828B83F0A388
:1000BB00AA82AB838D828E83D8E9D9E71212F8120C
:1000CB00182875D0007581BF75108075910053A2EB
:1000DB00FE020091010000000A0000000F0000006A
:1000EB0004000000100000001800000002010000D6
:1000FB00803F0000C842000000000000803FC3E7C3
:10010B00960809E7960809E7960809E79622C3E0DF
:10011B009608A3E09608A3E09608A3E09622C008F1
:10012B00C3E096F50808A3E096420808A3E09642C0
:10013B000808A3E09645087001D3D00822E9799E00
:10014B00C608CAC608CBC608CCC6C370207996CAE7
:10015B00CBCC7019798ECBCC70137986CC700EF911
:10016B00802ACA33CACB33CBCC33CC331930E7F22A
:10017B00CCCBCA3350147004EA30E00DE4CA3ACA4F
:10018B00CB3BCBCC3CCC500209C3E913C6CC1823D8
:10019B0013C6CB18C6CA18C6F9221201E520F014F3
:1001AB0030E72B74FFFCFBFA747F8022E4FCFBFA34
:1001BB007480801AB48008BC00F2BB00EF800F5033
:1001CB00EBF9E4C39AFAE49BFBE49CFCE499C6CC00
:1001DB0018C6CB18C6CA18C6F922E4C9C608CAC6BF
:1001EB0008CBC6D3330308CCC63392F0C3947F40FD
:1001FB002E94184019C9B90704CACBCC225025C379
:10020B0009CA33CACB33CBCC33CC33D9F422F46009
:10021B000DC9CCC313CB13CBCA13CAD9F6CC22E46A
:10022B00FCFBFA2214FCFBFA22E6261846184618A9
:10023B004622E72719471947194722181818E608C5
:10024B0046087009E626087005E633F422082219E1
:10025B001919E70947097009E727097005E733F40E
:10026B00220922E6084608C3134608336002E63328
:10027B00F422E7094709C3134709336002E733F454
:10028B002212026E602512027D602012023470036E
:10029B0002023D080808E76670101819E766700A35
:1002AB001819E76670041819E76622F42212026E19
:1002BB00601C12027D6017120234700712023D702F
:1002CB0001D322C0D012023D7006D0D0B322C3227C
:1002DB0033D0D0501430E0F6C3E7960809E7960800
:1002EB0009E7960809E796B32220E0D5E6970809B7
:1002FB00E6970809E6970809E697B32212026E60A3
:10030B001B12027D6016120234700712023D600C44
:10031B00B322C0D012023D7005D0D022C32233D0FD
:10032B00D0501330E0EBC3E7960809E7960809E7CE
:10033B00960809E7962220E0E4E6970809E6970875
:10034B0009E6970809E697220012026E604F120227
:10035B007D6012E7548066F6120246701112023D60
:10036B00703B090909F4F618F618F618F622120272
:10037B005A701512023408080860EAE6447FF61832
:10038B00768018E4F618F622120234601612023D3B
:10039B007012E4F608F608F608E65480F609090927
:1003AB0018181822EAC0E0EBC0E0ECC0E0EDC0E0AA
:1003BB00E687F0A4FBACF008E687F0A42CFCE43550
:1003CB00F0FA1809E687F0A42C4B60027401CA35C9
:1003DB00F0FCE433FB09E687F0D2F7A42CCB35F025
:1003EB00FC1908E687F0A42BCC35F0FBE433FD08B1
:1003FB0019E687F0D2E7A42C4ACB35F0CD3400FCBC
:10040B0009E687F0D2E7A42DCC35F0FDE433FA09E9
:10041B0018E687F0D2F7A42CCD35F0CA3400FC08CF
:10042B00E687F0D2E7D2F7A42ACC35F07A7E20E724
:10043B000B0ACB33CBCD33CDCC33CC33CB335014A6
:10044B007004ED30E00ED2F1E4CD3DCDCC3CCC3B95
:10045B005005DA05C2F1EB547FC63308E63392F050
:10046B00FBE73309E733C39A502D2B70190C0D4C56
:10047B004D70151806E608C333700D20F10AA2F073
:10048B0013F6E418800B4024E4F630F00276801863
:10049B00F618F618F68024D33B14501074FFA2F014
:1004AB0013F6187680E418F618F6800FA2F013F600
:1004BB0018E63303F618ECF618EDF6D0E0FDD0E0B5
:1004CB00FCD0E0FBD0E0FA2212027D604612026EF5
:1004DB00603DE9687008F618F618F618F622748075
:1004EB0067F7120507090909748067F72212026E74
:1004FB00601D12027D7005191919801A12024670BF
:10050B001F12025AC37003E66733191919400718F3
:10051B0018182208080874FFF618F618F618F622B1
:10052B0012025A601712023D702192F012023470BF
:10053B0019501720F014080808090909E7F61819CB
:10054B00E7F61819E7F61819E7F62212023460E6F7
:10055B00E869701F0808E62480F608E436F618549C
:10056B007FB47F0CE654806007F6E418F618F62289
:10057B00181822E9C6CC08C6CD08C6CE08C6CFC00F
:10058B00E0E8C0E0EAC0E0EBC0E009E9F809E7FA0F
:10059B0009E7FBE6F918E6F8C3EC98ED99EE9AEB50
:1005AB00C2E7F5F0EFC2E795F0500E600CEBCFFB16
:1005BB00EACEFAE9CDF9E8CCF8EAA2E7D2E7FAEB12
:1005CB0033FB13F5F0EEA2E7D2E7FEEF33FFC5F0F6
:1005DB0013A2E730E601B313C5F0C3C0E0C0F07F50
:1005EB0000C39BFB605E9418600F401D14601AD013
:1005FB00E023F9D0E0F80206D98AF0E9486003D28B
:10060B00F0E4AFF0FAF9F8803BEB30E40D89F0EA57
:10061B006003D2F0E4AFF0F9CAF8EB30E30D88F0E9
:10062B00EF6002D2F0AFF0E4CAC9F8EB54076014E4
:10063B00FBC3EA13FAE913F9E813F8EF135002D2EC
:10064B00E0FFDBEDD0E0C0E030E739C3E49FFFF51E
:10065B00F0EC98FC42F0ED99FD42F0EE9AFE42F080
:10066B00D0E0F9D0E0F8E5F0607AE923F9EE20E785
:10067B0042D8028067C3EF33FFEC33FCED33FDEE62
:10068B0033FE80EAEC28FCED39FDEE3AFED0E02398
:10069B00F9D0E0F84002801BC3EE13FEED13FDEC26
:1006AB0013FCEF135002D2E0FF08B800067F7F74F3
:1006BB00FF802EEF3350178CF020F00260100CBC33
:1006CB00000C0DBD00080EBE000408E860DFE93326
:1006DB00E813FFEE2313FE4F4D4C8008E95480FFC7
:1006EB00E4FEFDFCEE33EF33F47004FCFD7E80D0B2
:1006FB00E0FBD0E0FAD0E0F8D0E0CFC618CEC618B9
:10070B00CDC618CCC6F92212026E70041818182226
:10071B0012027D700D74FFF61819F61819F61819D8
:10072B00F622E7548066F6120234700F12023D7007
:10073B00F014F608F608F608F680D112023D700C9C
:10074B00F608F608768008E6447F80EC12025D70AE
:10075B000C12024960BFE65480F6E480BB120249DA
:10076B00700519191980A5E869700C763F18768009
:10077B0018F618F6E8F922E6CDC0E018ECC0E0E672
:10078B0033CD33CDD313F6E719FCE7191933CC333B
:10079B00C3947F400ECD9D502408E65480F6E41898
:1007AB00F6800FF4043D14501408E6447FF61876D7
:1007BB0080E418F618F6D0E0FCD0E0FD22CCD31381
:1007CB00CCFD18E4C6CBC0E018E4C6CAC0E00808EC
:1007DB00ED08C633E613F618E433C675F003C3CA47
:1007EB0097CA09CB97CB199C40047D08802EBD007E
:1007FB00030208BB16B6FF050606081618C3CA3354
:10080B00CACB33CB33CA27CA09CB37CB193CC37DF1
:10081B0008803E187D0820E75CC633C6CA33CACBB6
:10082B0033CB33DDF1D5F0EB30E77BCA97CA09CB7D
:10083B00974ACB199C406F4B7025E620E0218066D0
:10084B00187D08C3CA97CA09CB97CB199CD3C6335B
:10085B00C6CA33CACB33CB3350C9DDE7D5F0E1D3AE
:10086B00E4C636C608C636C608C636C608C636C679
:10087B001818188031C3CA97CA09CB97CB199CB3E8
:10088B004097C633C6CA33CACB33CB33DD34D5F02E
:10089B002EC6A2E0C640C8CA27CA09CB37194A7070
:1008AB00BECB3CB480B90808E63308E633601F18AA
:1008BB001818D0E0FAD0E0FBD0E0FCD0E0FD221815
:1008CB007D08CA27CA09CB37CB193CD3808013F6D6
:1008DB0018E4B67F11F618B6FF0EF618C60470D2E0
:1008EB000808768080CAF618F618F680C5E026F65A
:1008FB0008A3E036F608A3E036F608A3E036F622A6
:10090B00E026F008A3E036F008A3E036F008A3E0F9
:10091B0036F022C3E697F60809E697F60809E6973C
:10092B00F60809E697F622C3E0C696F608A3E0C6DA
:10093B0096F608A3E0C696F608A3E0C696F622E064
:10094B00F608A3E0F608A3E0F608A3E0F622E6F02B
:10095B0008A3E6F008A3E6F008A3E6F022E0FAA36A
:10096B00E0FBA3E0FCA3E0FD22E0F8A3E0F9A3E0A9
:10097B00FAA3E0FB22E8F0A3E9F0A3EAF0A3EBF083
:10098B0022CAC0E0E6F30908DAFAD0E0FA22600DD9
:10099B0008C6A2E713C618C613C6D5E0F322700427
:1009AB0022600D18C6C333C608C633C6D5E0F4188B
:1009BB0022E47353A2FED083D0822510F8C510C356
:1009CB009824FBCEF208E520F208E9C0E07908E7AD
:1009DB0009F208DEFAD0E0F9EFF208D0E0FED0E041
:1009EB00F208EEF208E473A810E2FE08E208F52024
:1009FB00E9C0E07908E208F709DFFAE208FFD0E086
:100A0B00F9E208C0E0E208C0E0881053A2FE22C061
:100A1B00D0C0F088F02510F8C510C39824F2C0E0C0
:100A2B00E5F0F208E9F208EAF208EBF208D0E0FB95
:100A3B007908E709F208DBFAE5A2F20853A2FEE512
:100A4B0082F208E583F208D0E0F208D0E0F208E584
:100A5B0020F208ECF208EDF208EEF208EFF222A811
:100A6B0010E208C0E0E208C0E0E208FAE208FB7915
:100A7B0008E208F709DFFAE2F5F00853A2FEE208F4
:100A8B00F582E208F58385F0A2E208F5F0E208F5BD
:100A9B00D0E208F520E208FCE208FDE208FEE208DD
:100AAB00FF8810D0E0F9D0E0F8D0E03205A2E58263
:100ABB00F208E583F253A2FE2205A2E208F582E2D8
:100ACB00F58353A2FE227401C9C0E0E510C399F56A
:100ADB0010C912098CD0E0F92274F71209BE151057
:100AEB001510A810120AB79000C7C3E094E8A3E052
:100AFB0094035003020BD31212658A088B09AE08BC
:100B0B00AF0912125BEEFAEFFB120C5B8A088B0932
:100B1B00AE08AF09EEFAEFFB120CE68A088B09AEB2
:100B2B0008AF09EEFAEFFB120D43E9F87401687098
:100B3B00629000B3780812094A9000AF780812014E
:100B4B001950429000B305A29000AF780812094AE1
:100B5B0090008C78081208F805A278081201294039
:100B6B00149000AB7400F0A37400F0A37400F0A316
:100B7B007400F08010900080780812094A9000AB46
:100B8B00780812090B9000B31209749000AF120988
:100B9B008080309000B305A29000AF780812094A0C
:100BAB0090008C78081208F805A2780812012940E9
:100BBB00129000AB7400F0A37400F0A37400F0A3C8
:100BCB007400F0120BF980189000C7E02401F0A319
:100BDB00E03400F09000B31209749000AF1209805A
:100BEB00A810120AC4051005107F040209F274F74D
:100BFB001209BE15101510A810120AB790008878AC
:100C0B000812094A9000AB7808120119500890009D
:100C1B00AA7400F0802C90009405A29000AB780889
:100C2B0012094A900090780812093205A27808122E
:100C3B00012940089000AA7401F080069000AA7464
:100C4B0002F0A810120AC4051005107F040209F265
:100C5B0074F31209BE8A088B09E4F50AF50B7808C0
:100C6B001201489000BF780C12094A7808790C12CF
:100C7B000353C008C009C00AC00B750800750900F2
:100C8B00750A80750B3F9000BF780C12094A7808E3
:100C9B00790C1204D39000C9E0F50CA3E0F50DE438
:100CAB00F50EF50F780C1201487808790C120353E6
:100CBB00D00FD00ED00DD00C780C79081204F87828
:100CCB000C1201A59000C9E50CF0A3E50DF0900006
:100CDB00C9E0FAA3E0FB7F080209F274F31209BE24
:100CEB009000CDE02AFCA3E03BFD9000CBE0F8A305
:100CFB00E0F9ECC398F508ED99F509E4F50AF50B65
:100D0B0078081201489000BF780C12094A780879CC
:100D1B000C12035378081201A59000CDE508F0A33F
:100D2B00E509F09000CBEAF0A3EBF09000CDE0FAF0
:100D3B00A3E0FB7F080209F274FA1209BE750800E2
:100D4B0078017900EA2428FEE43BFF9000CFE0FC19
:100D5B00A3E0FDC3EE9CEF9D50119000D1E0650820
:100D6B00702BE89000D1F0790180229000CFE02425
:100D7B0028FCA3E03400FDC3EC9AED9B500F9000D0
:100D8B00D1E0687008E5089000D1F079019000CFB0
:100D9B00EAF0A3EBF07F010209F274F31209BE7AB9
:100DAB00057904121162790112124A12125B90003A
:100DBB00B77436F0A3746FF0A37439F0A3743AF0E0
:100DCB009000BB746FF0A37412F0A37483F0A37440
:100DDB003AF09000BB780812094AC008C009C00A53
:100DEB00C00B9000B7780C12094A9000BB78081220
:100DFB00094A780C79081204F8D00BD00AD009D024
:100E0B00087808790C1207129000BF78081209595C
:100E1B009000C3741DF0A3749DF0A374D0F0A37461
:100E2B003AF09000BB780812094AC008C009C00A02
:100E3B00C00B9000C3780C12094A9000BB780812C3
:100E4B00094A780C79081204F8D00BD00AD009D0D3
:100E5B00087808790C1207129000BF78081209590C
:100E6B007F080209F274F71209BE9000807808120D
:100E7B00094A9000B3780812090B120AE47F0402A6
:100E8B0009F253A2FE9000AAE0F953A2FE2274F3DA
:100E9B001209BE7901C9FCC990009A780812094A57
:100EAB0090009E780C12094A7808790C120353783B
:100EBB00081201A5AA08AB09CCF9CC1210CB7F08FC
:100ECB000209F274F31209BE900109E06401700586
:100EDB0079001210BC7508017808120AD17C007DCC
:100EEB00007A647B007904120FFF05107901121050
:100EFB00BC900104780812094A9000A2780C1209E0
:100F0B004A7808790C12028C7012900104746FF0FD
:100F1B00A37412F0A37483F0A3743AF090010974D4
:100F2B0001F07F080209F2C00853A2FE900109E00C
:100F3B006401700579001210BC7508027808120A5A
:100F4B00D17C327D007A647B007904120FFF05108F
:100F5B0079011210BC9001097401F0D00853A2FE64
:100F6B0022E953A2FE900108F053A2FE2274F31261
:100F7B0009BE900108E06401703A90009A7808125B
:100F8B00094A9000A6780C12094A7808790C1202CB
:100F9B00B8405C90009A780812094A900104780CCA
:100FAB0012094A7808790C1204F890009A78081202
:100FBB000959803890009A780812094A9000807875
:100FCB000C12094A7808790C120307402290009AF8
:100FDB00780812094A900104780C12094A780879AA
:100FEB000C1204D390009A7808120959120E997FAB
:100FFB00080209F2EEC0E0E9FED2DC538EBFEEF43C
:10100B0052DFEE42DFEAF8EBF9E4C9F8E8F5D1EA92
:10101B00F5D9E510F8E2FAEAA2E0501353B3FB530B
:10102B00B4FBECF8EDF9E4C9F8E8F5D2ECF5DAEA43
:10103B00A2E1501353B3FD53B4FDECF8EDF9E4C941
:10104B00F8E8F5D3ECF5DBEAA2E2501353B3FE5309
:10105B00B4FEECF8EDF9E4C9F8E8F5D4ECF5DCEA0C
:10106B00A2E3501353B1FE53B2FEECF8EDF9E4C911
:10107B00F8E8F5D5ECF5DDEAA2E4501353B1FD53D6
:10108B00B2FDECF8EDF9E4C9F8E8F5C4ECF5CCEAFF
:10109B00A2E5501353B1F753B2F7ECF8EDF9E4C9ED
:1010AB00F8E8F5C5ECF5CDEA42DED0E0FE53A2FE42
:1010BB00227401697004D2DF8002C2DF53A2FE22C8
:1010CB00EEC0E0E9FEA2DE40FCEEA2E0500DEAF835
:1010DB00EBF9E4C9F8E8F5D2EAF5DAEEA2E1500D46
:1010EB00EAF8EBF9E4C9F8E8F5D3EAF5DBEEA2E2AE
:1010FB00500DEAF8EBF9E4C9F8E8F5D4EAF5DCEEC3
:10110B00A2E3500DEAF8EBF9E4C9F8E8F5D5EAF5F6
:10111B00DDEEA2E4500DEAF8EBF9E4C9F8E8F5C40A
:10112B00EAF5CCEEA2E5500DEAF8EBF9E4C9F8E8E4
:10113B00F5C5EAF5CDD2DEEEFA7901121150D0E009
:10114B00FE53A2FE227401697005EA42DE8004EAB6
:10115B00F452DE53A2FE2274FA1209BEE9FFEAFE34
:10116B00EEF912118574046F600BEFC454F0543018
:10117B0042E843E1027F010209F2E9602114603089
:10118B0014604014604D14605E14606E14607F1424
:10119B00700302122D14700302124102124653E81F
:1011AB00F043B38053B47F75F60043F60102124649
:1011BB0053E8F0D2E843AC0153ADFE75F60043F6AD
:1011CB0002807853E8F0D2E943B18053B27F75F6D1
:1011DB0000806853E8F043E80343B14053B2BF7556
:1011EB00F60043F608805453E8F0D2EA43B120539B
:1011FB00B2DF75F60043F610804153E8F043E80583
:10120B0043B11053B2EF75F60043F620802D53E82F
:10121B00F043E80643B10853B2F775F60043F640C6
:10122B00801953E8F043E80743B30253B4FD75F656
:10123B000043F6808005D2EB53E8F853A2FE2274EC
:10124B000169700543E101800353E1FE53A2FE22C5
:10125B00A2EE4002D2EE53A2FE22C008C009A2EEBB
:10126B0040FCE5C3F508750900740478081209A958
:10127B00E5C2F87900E8540FF8E95400F9E508489D
:10128B00F508E50949F509AA08AB09D009D00853B7
:10129B00A2FE221212F2121790120ECE120DA57987
:1012AB000112170279001213BE790112151753A2FE
:1012BB00FE2212176DE9640170077A2C7B17121549
:1012CB00F91213EBE970077A787B0F1215F97A2F65
:1012DB007B151215F97AF77B131215F97A707B0EC1
:1012EB001215F953A2FE22D2AF53A2FE2212129E66
:1012FB001212BD7BC07A2079011216807BC07A2036
:10130B0079001216807A2079001216AE75080075D6
:10131B000900750A00750B00800B1217AC8A088B3D
:10132B00098C0A8D0B1217AC8A0C8B0D8C0E8D0F42
:10133B007808790C12010940E105A290008412177C
:10134B00AC8A0C8B0D8C0E8D0F780C790812091E44
:10135B0005A2780C12012950CC1217AC8A088B0904
:10136B008C0A8D0B12163280BCEEC0E0EBFE53A242
:10137B00FE9000D4E064017007EEF912139D800B10
:10138B009000D4E07005EEF9120F6CD0E0FE53A282
:10139B00FE22EEC0E0E9FE74016E70097A04790159
:1013AB001216D880077A0479011216EDD0E0FE539D
:1013BB00A2FE22EEC0E0E9FE74016E700B7BD07AC8
:1013CB000479011216808003120ECE7BA07A20794D
:1013DB0001121680EE9000D4F0D0E0FE53A2FE2254
:1013EB0053A2FE9000D4E0F953A2FE22121551E94C
:1013FB00FB7A04790112137412140A53A2FE2212FF
:10140B001551E970097A2079011216D880077A20D4
:10141B0079011216ED53A2FE22C0D0C0A2D0A2D0E9
:10142B00D032C0D0C0A2D0A2D0D032C0D0C0A2D0B7
:10143B00A2D0D032C0D0C0A2D0A2D0D032C0D0C0A7
:10144B00A2D0A2D0D032C0D0C0A2D0A2D0D032C0B5
:10145B00D0C0A2D0A2D0D032C0D0C0A2D0A2D0D007
:10146B0032C0D0C0A2D0A2D0D032C0D0C0A2D0A2A5
:10147B00D0D032C0D0C0A2D0A2D0D032C0D0C0A267
:10148B00D0A2D0D032C0D0C0A2D0A2D0D032C0D047
:10149B00C0A2D0A2D0D032C0D0C0A2D0A2D0D03265
:1014AB00C0D0C0A2D0A2D0D032C0E074F1120A1AC0
:1014BB001217B97F01020A6AC0D0C0A2D0A2D0D045
:1014CB003253A2FE900099E064017023E9703990C9
:1014DB0000D5E0640170319000D6E0640170089093
:1014EB0000D67400F080219000D67401F080199022
:1014FB000099E0701374016970089000D67401F0C4
:10150B0080069000D67400F053A2FE2253A2FE90E8
:10151B0000D57400F09000D67400F0E9900099F0BB
:10152B0053A2FE22EEC0E0120E8DE97E0070047E07
:10153B000080027E01EEF91214CCEEF912155DD08B
:10154B00E0FE53A2FE2253A2FE9000D6E0F953A276
:10155B00FE22E953A2FE9000D5F053A2FE22E960D1
:10156B00051460268046EBA2E75016EBA2E6500965
:10157B00EAF452B1EA42B28033EA42B1EA42B280B3
:10158B002BEA42B1EAF452B28022EBA2E75016EBFF
:10159B00A2E65009EAF452B3EA42B4800FEA42B32E
:1015AB00EA42B48007EA42B3EAF452B453A2FE22F1
:1015BB00E960051460078008EA42808003EA4290E4
:1015CB0053A2FE22E96005146008800AEAF45280F7
:1015DB008004EAF4529053A2FE22E96005146007DE
:1015EB008008EA62808003EA629053A2FE2253A233
:1015FB00FE9000FFE0F87900E875F002A4C8ACF0AB
:10160B0075F000A42CFC75F002E9A42CF974D72812
:10161B00F582740039F583EAF0A3EBF09000FFE05C
:10162B002401F053A2FE22EEC0E07E0080337A004C
:10163B007B00EEF87900E875F002A4C8ACF075F009
:10164B0000A42CFC75F002E9A42CF974D728F582C0
:10165B00740039F583E0F8A3E0F58388821209BCA6
:10166B000E53A2FE9000FFE0F8EEC39840C0D0E00E
:10167B00FE53A2FE2274FA1209BE8908EAFFEBFEA2
:10168B00EEFBEFFAA9081215697F010209F274FA51
:10169B001209BEE9FFEAFEEEFAEFF91215BB7F0164
:1016AB000209F274FA1209BEE9FFEAFEEEFAEFF94B
:1016BB001215CF7F010209F274FA1209BEE9FFEA93
:1016CB00FEEEFAEFF91215E57F010209F274FA1238
:1016DB0009BEE9FFEAFEEEFAEFF91216AE7F010240
:1016EB0009F274FA1209BEE9FFEAFEEEFAEFF912FB
:1016FB0016997F010209F2EEC0E0E9FE74016E70EB
:10170B000B7BC07A0179011216808006EE700312F2
:10171B000F32EE53A2FE9000D2F0D0E0FE53A2FEA9
:10172B002253A2FE9000D2E064017032900098E048
:10173B0064FF70097A0179011216AE80219000D3F3
:10174B00E02401F0900098E0F89000D3E0C39840BB
:10175B000D9000D37400F07A0179011216C353A2D5
:10176B00FE2253A2FE9000D2E0F953A2FE227A642D
:10177B007B0079041217F579011217E4790112171E
:10178B00D353A2FE2253A2FE9001007400F0A37467
:10179B0000F0A37400F0A37400F012177953A2FEAB
:1017AB002253A2FE90010012096853A2FE2274F785
:1017BB001209BE900080780812094A90010078083F
:1017CB0012090B7F040209F2740169700543C40806
:1017DB00800353C4F753A2FE227401697005439C26
:1017EB00028003539CFD53A2FE22C008C00974075C
:1017FB0059F8E5C454F848F5C474FFC39AF5087456
:10180B00FF9BF50974087808120999E508F5C67469
:10181B00FFC39AF5C5D009D00853A2FE2212008E41
:03182B002280FE1A
:0000CD0132
:00000001FF
