:060000000200CD021E39D2
:03000B00021E4290
:03001300021E4B7F
:03001B00021E546E
:03002300021E5D5D
:03002B00021EB9F9
:03003300021EC2E8
:03003B00021ECBD7
:03004300021ED4C6
:03004B00021EDDB5
:03005300021EE6A4
:03005B00021EEF93
:03006300021EF882
:03006B00021F0170
:03007300021F0A5F
:03007B00021F134E
:03008300021F1C3D
:10008B00021F2B0223C9E49000A5782D790380026F
:10009B00F0A3D8FCD9FA7A807B009000DF78267920
:1000AB00018015E493A3AD82AE838A828B83F0A388
:1000BB00AA82AB838D828E83D8E9D9E7121DCD122C
:1000CB0023C575D0007581BF75108075910053A243
:1000DB00FE02009104000000010000000F00000070
:1000EB00100000000A000000020000803F0000C862
:1000FB0042000000000000803FC3E7960809E79626
:10010B000809E7960809E79622C3E09608A3E0964C
:10011B0008A3E09608A3E09622C008C3E096F50872
:10012B0008A3E096420808A3E096420808A3E096CD
:10013B0045087001D3D00822E9799EC608CAC608C3
:10014B00CBC608CCC6C370207996CACBCC701979B4
:10015B008ECBCC70137986CC700EF9802ACA33CA39
:10016B00CB33CBCC33CC331930E7F2CCCBCA3350B7
:10017B00147004EA30E00DE4CA3ACACB3BCBCC3C5A
:10018B00CC500209C3E913C6CC182313C6CB18C62F
:10019B00CA18C6F9221201E020F01430E72B74FFC5
:1001AB00FCFBFA747F8022E4FCFBFA7480801AB4A7
:1001BB008008BC00F2BB00EF800F50EBF9E4C39A50
:1001CB00FAE49BFBE49CFCE499C6CC18C6CB18C69E
:1001DB00CA18C6F922E4C9C608CAC608CBC6D333A7
:1001EB000308CCC63392F0C3947F402E9418401969
:1001FB00C9B90704CACBCC225025C309CA33CACB11
:10020B0033CBCC33CC33D9F422F4600DC9CCC3132C
:10021B00CB13CBCA13CAD9F6CC22E4FCFBFA2214BB
:10022B00FCFBFA22E62618461846184622E7271941
:10023B00471947194722181818E60846087009E6A7
:10024B0026087005E633F4220822191919E7094725
:10025B00097009E727097005E733F4220922E6083C
:10026B004608C3134608336002E633F422E7094716
:10027B0009C3134709336002E733F42212026960A2
:10028B0025120278602012022F7003020238080830
:10029B0008E76670101819E766700A1819E7667098
:1002AB00041819E76622F422120269601C12027804
:1002BB00601712022F70071202387001D322C0D0C0
:1002CB001202387006D0D0B322C32233D0D05014D0
:1002DB0030E0F6C3E7960809E7960809E7960809A0
:1002EB00E796B32220E0D5E6970809E6970809E6DA
:1002FB00970809E697B322120269601B1202786015
:10030B001612022F7007120238600CB322C0D012E3
:10031B0002387005D0D022C32233D0D0501330E036
:10032B00EBC3E7960809E7960809E7960809E796ED
:10033B002220E0E4E6970809E6970809E697080902
:10034B00E6972200120269604F1202786012E7549E
:10035B008066F61202417011120238703B090909CE
:10036B00F4F618F618F618F622120255701512024A
:10037B002F08080860EAE6447FF618768018E4F642
:10038B0018F62212022F60161202387012E4F608C9
:10039B00F608F608E65480F609090918181822EA37
:1003AB00C0E0EBC0E0ECC0E0EDC0E0E687F0A4FB02
:1003BB00ACF008E687F0A42CFCE435F0FA1809E65B
:1003CB0087F0A42C4B60027401CA35F0FCE433FBBC
:1003DB0009E687F0D2F7A42CCB35F0FC1908E68799
:1003EB00F0A42BCC35F0FBE433FD0819E687F0D2F3
:1003FB00E7A42C4ACB35F0CD3400FC09E687F0D2CC
:10040B00E7A42DCC35F0FDE433FA0918E687F0D2DA
:10041B00F7A42CCD35F0CA3400FC08E687F0D2E700
:10042B00D2F7A42ACC35F07A7E20E70B0ACB33CB5C
:10043B00CD33CDCC33CC33CB3350147004ED30E013
:10044B000ED2F1E4CD3DCDCC3CCC3B5005DA05C210
:10045B00F1EB547FC63308E63392F0FBE73309E741
:10046B0033C39A502D2B70190C0D4C4D701518066B
:10047B00E608C333700D20F10AA2F013F6E41880DE
:10048B000B4024E4F630F002768018F618F618F6D6
:10049B008024D33B14501074FFA2F013F61876800F
:1004AB00E418F618F6800FA2F013F618E63303F6ED
:1004BB0018ECF618EDF6D0E0FDD0E0FCD0E0FBD068
:1004CB00E0FA221202786046120269603DE9687018
:1004DB0008F618F618F618F622748067F71205025C
:1004EB00090909748067F722120269601D120278EC
:1004FB007005191919801A120241701F120255C387
:10050B007003E667331919194007181818220808E1
:10051B000874FFF618F618F618F622120255601733
:10052B00120238702192F012022F7019501720F01E
:10053B0014080808090909E7F61819E7F61819E766
:10054B00F61819E7F62212022F60E6E869701F0809
:10055B0008E62480F608E436F618547FB47F0CE6E0
:10056B0054806007F6E418F618F622181822E9C62C
:10057B00CC08C6CD08C6CE08C6CFC0E0E8C0E0EABE
:10058B00C0E0EBC0E009E9F809E7FA09E7FBE6F997
:10059B0018E6F8C3EC98ED99EE9AEBC2E7F5F0EF9D
:1005AB00C2E795F0500E600CEBCFFBEACEFAE9CD2B
:1005BB00F9E8CCF8EAA2E7D2E7FAEB33FB13F5F054
:1005CB00EEA2E7D2E7FEEF33FFC5F013A2E730E66A
:1005DB0001B313C5F0C3C0E0C0F07F00C39BFB6049
:1005EB005E9418600F401D14601AD0E023F9D0E020
:1005FB00F80206D48AF0E9486003D2F0E4AFF0FACF
:10060B00F9F8803BEB30E40D89F0EA6003D2F0E4BB
:10061B00AFF0F9CAF8EB30E30D88F0EF6002D2F0DF
:10062B00AFF0E4CAC9F8EB54076014FBC3EA13FA42
:10063B00E913F9E813F8EF135002D2E0FFDBEDD02A
:10064B00E0C0E030E739C3E49FFFF5F0EC98FC42E3
:10065B00F0ED99FD42F0EE9AFE42F0D0E0F9D0E0D9
:10066B00F8E5F0607AE923F9EE20E742D8028067DB
:10067B00C3EF33FFEC33FCED33FDEE33FE80EAECDE
:10068B0028FCED39FDEE3AFED0E023F9D0E0F8403E
:10069B0002801BC3EE13FEED13FDEC13FCEF1350A6
:1006AB0002D2E0FF08B800067F7F74FF802EEF3385
:1006BB0050178CF020F00260100CBC000C0DBD002C
:1006CB00080EBE000408E860DFE933E813FFEE23F1
:1006DB0013FE4F4D4C8008E95480FFE4FEFDFCEE09
:1006EB0033EF33F47004FCFD7E80D0E0FBD0E0FAF6
:1006FB00D0E0F8D0E0CFC618CEC618CDC618CCC601
:10070B00F922120269700418181822120278700D5F
:10071B0074FFF61819F61819F61819F622E7548013
:10072B0066F612022F700F12023870F014F608F6EC
:10073B0008F608F680D1120238700CF608F6087627
:10074B008008E6447F80EC120258700C1202446061
:10075B00BFE65480F6E480BB1202447005191919E8
:10076B0080A5E869700C763F18768018F618F6E8C5
:10077B00F922E6CDC0E018ECC0E0E633CD33CDD3A3
:10078B0013F6E719FCE7191933CC33C3947F400EEA
:10079B00CD9D502408E65480F6E418F6800FF4043F
:1007AB003D14501408E6447FF6187680E418F618CA
:1007BB00F6D0E0FCD0E0FD22CCD313CCFD18E4C680
:1007CB00CBC0E018E4C6CAC0E00808ED08C633E6A3
:1007DB0013F618E433C675F003C3CA97CA09CB974F
:1007EB00CB199C40047D08802EBD00030208B61671
:1007FB00B6FF050606081618C3CA33CACB33CB336C
:10080B00CA27CA09CB37CB193CC37D08803E187D5C
:10081B000820E75CC633C6CA33CACB33CB33DDF112
:10082B00D5F0EB30E77BCA97CA09CB974ACB199C1B
:10083B00406F4B7025E620E0218066187D08C3CA07
:10084B0097CA09CB97CB199CD3C633C6CA33CACB2D
:10085B0033CB3350C9DDE7D5F0E1D3E4C636C60858
:10086B00C636C608C636C608C636C618181880312E
:10087B00C3CA97CA09CB97CB199CB34097C633C64B
:10088B00CA33CACB33CB33DD34D5F02EC6A2E0C688
:10089B0040C8CA27CA09CB37194A70BECB3CB480B3
:1008AB00B90808E63308E633601F181818D0E0FAC9
:1008BB00D0E0FBD0E0FCD0E0FD22187D08CA27CAAF
:1008CB0009CB37CB193CD3808013F618E4B67F11D4
:1008DB00F618B6FF0EF618C60470D208087680809C
:1008EB00CAF618F618F680C5E4CFC0E0E4CEC0E037
:1008FB00E4CDC0E0E4CCC0E075F020E626F608E6D7
:10090B0033F608E633F608E633F6181818EC33FC22
:10091B00ED33FDEE33FEEF33FFC3EC9709ED970993
:10092B00EE9709EF97191919400FFFEC97FC09ED9A
:10093B0097FD09EE97FE191906D5F0BFECF709EDF7
:10094B00F709EEF709EFF7191919D0E0FCD0E0FD24
:10095B00D0E0FED0E0FF221209CA1818181208F3D3
:10096B001209B9191919221209B919191908080804
:10097B00E618181820E7E01208F31209CA1818181D
:10098B0022090909E719191920E7DC080808E618F4
:10099B00181820E7030208F31209CA1818181208CE
:1009AB00F31209CA1818181209B919191922E4C334
:1009BB0097F709E497F709E497F709E497F722E427
:1009CB00C396F608E496F608E496F608E496F62243
:1009DB00E026F608A3E036F608A3E036F608A3E017
:1009EB0036F622E026F008A3E036F008A3E036F056
:1009FB0008A3E036F022C3E697F60809E697F60857
:100A0B0009E697F60809E697F622C3E0C696F608BC
:100A1B00A3E0C696F608A3E0C696F608A3E0C69632
:100A2B00F622E0F608A3E0F608A3E0F608A3E0F64A
:100A3B0022E6F008A3E6F008A3E6F008A3E6F0220E
:100A4B00E0FAA3E0FBA3E0FCA3E0FD22E0F8A3E0C7
:100A5B00F9A3E0FAA3E0FB22E8F0A3E9F0A3EAF0A4
:100A6B00A3EBF022CAC0E0E6F30908DAFAD0E0FA09
:100A7B0022CAC0E0E2F30908DAFAD0E0FA22CAC0CF
:100A8B00E0E2F0A308DAFAD0E0FA22CAC0E0E0A371
:100A9B0005A2F0A305A2DAF6D0E0CA22600D08C6C3
:100AAB00A2E713C618C613C6D5E0F3227004226062
:100ABB000D18C6C333C608C633C6D5E0F41822E4F6
:100ACB007353A2FED083D0822510F8C510C398248F
:100ADB00FBCEF208E520F208E9C0E07908E709F25D
:100AEB0008DEFAD0E0F9EFF208D0E0FED0E0F20831
:100AFB00EEF208E473A810E2FE08E208F520E9C064
:100B0B00E07908E208F709DFFAE208FFD0E0F9E242
:100B1B0008C0E0E208C0E0881053A2FE22C0D0C09B
:100B2B00F088F02510F8C510C39824F2C0E0E5F06A
:100B3B00F208E9F208EAF208EBF208D0E0FB7908D8
:100B4B00E709F208DBFAE5A2F20853A2FEE582F20E
:100B5B0008E583F208D0E0F208D0E0F208E520F2D5
:100B6B0008ECF208EDF208EEF208EFF222A810E220
:100B7B0008C0E0E208C0E0E208FAE208FB7908E20C
:100B8B0008F709DFFAE2F5F00853A2FEE208F58256
:100B9B00E208F58385F0A2E208F5F0E208F5D0E271
:100BAB0008F520E208FCE208FDE208FEE208FF88F7
:100BBB0010D0E0F9D0E0F8D0E03205A2E582F208DF
:100BCB00E583F253A2FE2205A2E208F582E2F58349
:100BDB0053A2FE227401C9C0E0E510C399F510C9F8
:100BEB00120A6FD0E0F922C9C0E0E510C399F510E5
:100BFB00C9120A7CD0E0F922E953A2FE90014FF012
:100C0B0053A2FE2253A2FE90014EE02401F090016C
:100C1B004EE0C39419400B90014E7400F0120C4C33
:100C2B0080167BFF7A0390014EE0F9120E6D900156
:100C3B0050740FF0A37400F07905120C0353A2FE4D
:100C4B002274FA120ACCE51024E7F5107E007F001F
:100C5B0080127401C0E0EEF8E51028F8D0E0F20E37
:100C6B00EE70010FC3EE9419EF9400A2D265D0334E
:100C7B005065EE4F702C122340E9C0E0EEF8EFF90F
:100C8B00E875F004A4C8AAF075F000A42AFA75F070
:100C9B0004E9A42AF974EC28F582740039F583D0A1
:100CAB00E0F0EEF8EFF9E875F004A4C8AAF075F0DF
:100CBB0000A42AFA75F004E9A42AF974EC28F58249
:100CCB00740039F583E0708A7400C0E0EEF8E5102B
:100CDB0028F8D0E0F280887E007F0080297401C064
:100CEB00E0EAF8E51028F8D0E0F2190AEA70010BF7
:100CFB00C3EA9419EB9400A2D265D0335003E97088
:100D0B00DC0EEE70010FC3EE9419EF9400A2D265C6
:100D1B00D0335067EEF8EFF9E875F004A4C8AAF0E9
:100D2B0075F000A42AFA75F004E9A42AF974EC28EA
:100D3B00F582740039F583E0640170C5EE24FFFA87
:100D4B00EF34FFFB790180167401C0E0EAF8E5107F
:100D5B0028F8D0E0F219EA24FFFAEB34FFFBC3EAE0
:100D6B009400EB9400A2D265D0334003E970D9EE26
:100D7B002401FAE43FFB7901020CFB7E007F00802B
:100D8B0031EEF8EFF9E875F004A4C8AAF075F0009D
:100D9B00A42AFA75F004E9A42AF974EB28F58274F5
:100DAB000039F583E0FB7A02EEF9120E6D0EEE7050
:100DBB00010FC3EE9419EF9400A2D265D033400318
:100DCB00020E5EEEF8EFF9E875F004A4C8AAF07510
:100DDB00F000A42AFA75F004E9A42AF974EB28F5BB
:100DEB0082740039F583E0F9EEF8E51028F8E26932
:100DFB0060BBEEF8E51028F8E2C0E0EEF8EFF9E89A
:100E0B0075F004A4C8AAF075F000A42AFA75F004D2
:100E1B00E9A42AF974EB28F582740039F583D0E044
:100E2B00F0EE4F6003020D8CEEF8EFF9E875F0046D
:100E3B00A4C8AAF075F000A42AFA75F004E9A42A54
:100E4B00F974EB28F582740039F583E0F912235815
:100E5B00020DB892F0E5102419F510A2F07F0102F3
:100E6B000B0074FA120ACCE51024FCF510E9FEEA2B
:100E7B00FF8B08EEC0E0E5102401F8D0E0F2EFC0E4
:100E8B00E0E5102402F8D0E0F2E508C0E0E510241C
:100E9B0003F8D0E0F2E510F87404120BF212182DDF
:100EAB00E5102404F51005100510051005107F0141
:100EBB00020B00E5102401F8E2C394194003020F62
:100ECB008FE5102402F8E214600724FD607B020F0B
:100EDB008FE5102401F8E2F87900E875F004A4C856
:100EEB00AAF075F000A42AFA75F004E9A42AF974A3
:100EFB00E92853A2FEF582740039F5837401F0E5FD
:100F0B00102403F8E2C0E0E5102401F8E2F87900C0
:100F1B00E875F004A4C8AAF075F000A42AFA75F0DD
:100F2B0004E9A42AF974EC28F582740039F583D00E
:100F3B00E0F090014DE0C3941950077901120C03B6
:100F4B0080427902120C03803BE5102403F8E2C0C7
:100F5B00E0E5102401F8E2F87900E875F004A4C884
:100F6B00AAF075F000A42AFA75F004E9A42AF97422
:100F7B00EC2853A2FEF582740039F583D0E0F079AA
:100F8B0002120C0353A2FE2253A2FE90014DE0C3AA
:100F9B009419501D7BFF7A0090014DE0F9120E6DF4
:100FAB00900150740FF0A37400F07904120C0380BD
:100FBB00057902120C0390014DE02401F053A2FEBF
:100FCB00227A00021070EAF87900E875F004A4C8E0
:100FDB00ABF075F000A42BFB75F004E9A42BF974AE
:100FEB00E92853A2FEF582740039F5837400F0EA08
:100FFB00C0E0EAF87900E875F004A4C8ABF075F02E
:10100B0000A42BFB75F004E9A42BF974EA28F582F4
:10101B00740039F583D0E0F0EAF87900E875F00454
:10102B00A4C8ABF075F000A42BFB75F004E9A42B5E
:10103B00F974EB28F582740039F5837400F0EAF843
:10104B007900E875F004A4C8ABF075F000A42BFB95
:10105B0075F004E9A42BF974EC28F582740039F5CA
:10106B00837400F00AEAC394195003020FD153A200
:10107B00FE90014F7401F09001507400F0A37400C6
:10108B00F053A2FE22E51024FCF51053A2FE9001B2
:10109B004FE0603A14600F14601124FE602314605B
:1010AB002014601D8028120F938023120C0F801EBA
:1010BB00E510F87404120BF2120EBEE5102404F5C1
:1010CB0010E510FA7B001217BEE9640160E2900193
:1010DB0050E0F8A3E0F9E849701E90014FE064047A
:1010EB0070077901120C03801B90014FE0640570AF
:1010FB00137902120C03800C900150E024FFF0A333
:10110B00E034FFF0051005100510051053A2FE2268
:10111B0074F7120ACC15101510A810120BC59000FD
:10112B00D9C3E094E8A3E09403500302120A121C03
:10113B00EF8A088B09AE08AF09121CE5EEFAEFFB3C
:10114B001212928A088B09AE08AF09EEFAEFFB1266
:10115B00131D8A088B09AE08AF09EEFAEFFB1213C9
:10116B007AE9F874016870629000C57808120A2D4C
:10117B009000C1780812011450429000C505A2904E
:10118B0000C17808120A2D90008078081209DB053F
:10119B00A2780812012440149000BD7400F0A374CF
:1011AB0000F0A37400F0A37400F08010900084781A
:1011BB0008120A2D9000BD78081209EE9000C51296
:1011CB000A579000C1120A6380309000C505A290A7
:1011DB0000C17808120A2D90008078081209DB05EF
:1011EB00A2780812012440129000BD7400F0A37481
:1011FB0000F0A37400F0A37400F01212308018906A
:10120B0000D9E02401F0A3E03400F09000C5120AED
:10121B00579000C1120A63A810120BD205100510CB
:10122B007F04020B0074F7120ACC15101510A810CE
:10123B00120BC59000887808120A2D9000BD780813
:10124B0012011450089000BC7400F0802C90009098
:10125B0005A29000BD7808120A2D90008C78081218
:10126B000A1505A2780812012440089000BC7401ED
:10127B00F080069000BC7402F0A810120BD205107F
:10128B0005107F04020B0074F3120ACC8A088B0939
:10129B00E4F50AF50B78081201439000D1780C1293
:1012AB000A2D7808790C12034EC008C009C00AC079
:1012BB000B750800750900750A80750B3F9000D1FE
:1012CB00780C120A2D7808790C1204CE9000DBE012
:1012DB00F50CA3E0F50DE4F50EF50F780C120143B8
:1012EB007808790C12034ED00FD00ED00DD00C789D
:1012FB000C79081204F3780C1201A09000DBE50CBA
:10130B00F0A3E50DF09000DBE0FAA3E0FB7F080211
:10131B000B0074F3120ACC9000DFE02AFCA3E03B35
:10132B00FD9000DDE0F8A3E0F9ECC398F508ED992A
:10133B00F509E4F50AF50B78081201439000D17812
:10134B000C120A2D7808790C12034E78081201A0A2
:10135B009000DFE508F0A3E509F09000DDEAF0A3CB
:10136B00EBF09000DFE0FAA3E0FB7F08020B0074C8
:10137B00FA120ACC75080078017900EA2428FEE4F9
:10138B003BFF9000E1E0FCA3E0FDC3EE9CEF9D5022
:10139B00119000E3E06508702BE89000E3F0790111
:1013AB0080229000E1E02428FCA3E03400FDC3EC94
:1013BB009AED9B500F9000E3E0687008E5089000F1
:1013CB00E3F079019000E1EAF0A3EBF07F01020B6F
:1013DB000074F3120ACC7A057904121BEC79011212
:1013EB001CD4121CE59000C97468F0A37413F0A30D
:1013FB00748BF0A3743AF09000CD746FF0A3741259
:10140B00F0A37483F0A3743AF09000CD7808120A1D
:10141B002DC008C009C00AC00B9000C9780C120A75
:10142B002D9000CD7808120A2D780C79081204F350
:10143B00D00BD00AD009D0087808790C12070D9080
:10144B0000D17808120A3C9000D5741DF0A3749D4E
:10145B00F0A374D0F0A3743AF09000CD7808120A80
:10146B002DC008C009C00AC00B9000D5780C120A19
:10147B002D9000CD7808120A2D780C79081204F300
:10148B00D00BD00AD009D0087808790C12070D9030
:10149B0000D17808120A3C7F08020B0074F7120A7D
:1014AB00CC9000847808120A2D9000C57808120998
:1014BB00EE12111B7F04020B0053A2FE9000BCE046
:1014CB00F953A2FE22EEC0E0E9FEEEF9121F9CD00A
:1014DB00E0FE53A2FE22EEC0E0E9FEEEF9121F9CE5
:1014EB00D0E0FE53A2FE227A007B967901121F34C4
:1014FB007902121FDD7901121FDD7901121F9C7B0E
:10150B00E07A2079001221C57A2079001221F35359
:10151B00A2FE22EEC0E0E9FE53A2FE90028BC3E0D6
:10152B009480A3E0940050F0EEFC7D00900287E0E5
:10153B00F8A3E0F9E875F002A4C8AAF075F000A4CE
:10154B002AFA75F002E9A42AF9748728F582740146
:10155B0039F583ECF0A3EDF0900287E02401F0A3C2
:10156B00E03400F0900287C3E09480A3E094004045
:10157B000A9002877400F0A37400F079001214D063
:10158B0090028BE02401F0A3E03400F090028BE09A
:10159B0064017004A3E0640070057902121FC9791D
:1015AB00011214D0D0E0FE53A2FE2253A2FE9002F1
:1015BB008BE0F8A3E0F9E8497004790080689002A9
:1015CB0089E0F8A3E0F9E875F002A4C8ACF075F077
:1015DB0000A42CFC75F002E9A42CF9748728F58281
:1015EB00740139F583E0F8A3E0F9E8C0E08A828B57
:1015FB0083D0E0F090028BE024FFF0A3E034FFF007
:10160B00900289E02401F0A3E03400F0900289E01D
:10161B0064807004A3E06400700A9002897400F087
:10162B00A37400F0790153A2FE2253A2FE9002CFC5
:10163B00E0C394805034E9C0E09002CDE0FA7B0027
:10164B00748D2AF58274023BF583D0E0F09002CFC3
:10165B00E02401F09002CDE02401F09002CDE0C334
:10166B00944040069002CD7400F053A2FE2253A288
:10167B00FE9002CFE07004790080439002CEE0F838
:10168B007900748D28F582740239F583E0C0E08A05
:10169B00828B83D0E0F079001214E19002CFE0242A
:1016AB00FFF079011214E19002CEE02401F09002D8
:1016BB00CEE0644070069002CE7400F0790153A224
:1016CB00FE2274F9120ACC15101510A810120BC5B6
:1016DB0005A28A828B83ECFEEDFF7508007509006D
:1016EB00802A43A201E582250805A2F58205A2E521
:1016FB0083350905A2F583E0F912151E0508E508E7
:10170B0070020509EE24FFFEEF34FFFFEE4F70D29F
:10171B00A81053A2FE120BD2051005107F02020B6C
:10172B000053A2FE9002CFE0F953A2FE227A207959
:10173B00001221DE9002D07401F053A2FE2253A2BC
:10174B00FE9002D07400F07A2079001221F353A29C
:10175B00FE2253A2FE9000BBE0C394054004790027
:10176B00804DE510F89000B9E0FA7B00EA75F004C3
:10177B00A4CAA9F075F000A429F975F004EBA4290B
:10178B00FB74A52AF58274003BF5837404120A8955
:10179B009000B9E02401F09000BBE02401F0900030
:1017AB00B9E0C3940540069000B97400F079015379
:1017BB00A2FE2243A201C082C08305A29000BBE01F
:1017CB007004790080528A828B8305A29000BAE064
:1017DB00F87900E875F004A4C8AAF075F000A42A03
:1017EB00FA75F004E9A42AF974A528F58274003976
:1017FB00F5837404120A9605A29000BAE02401F056
:10180B009000BBE024FFF09000BAE0C394054006C3
:10181B009000BA7400F0790105A2D083D08253A254
:10182B00FE22E51024FCF51074FAC0E0E510F8D0A8
:10183B00E0F2E5102405F8E2C0E0E5102401F8D051
:10184B00E0F2E5102406F8E2C0E0E5102402F8D03F
:10185B00E0F2E5102407F8E2C0E0E5102403F8D02D
:10186B00E0F27C047D00E510FA7B001216CD05102A
:10187B0005100510051053A2FE22E51024FBF510F0
:10188B00806FE510F8E264FA7067E510F8E2C0E0EB
:10189B00E5102401F8D0E0F2E510FA7B001216797E
:1018AB00E9E510F8E2C0E0E5102402F8D0E0F2E53B
:1018BB0010FA7B00121679E9E510F8E2C0E0E510AA
:1018CB002403F8D0E0F2E510FA7B00121679E9E573
:1018DB0010F8E2C0E0E5102404F8D0E0F2E51024A3
:1018EB0001F87404120BF212175DE5102404F510C5
:1018FB00E912172CE9C394044010E510FA7B00128F
:10190B001679E96401700302188D05100510051096
:10191B000510051053A2FE2274F3120ACC7901C9EB
:10192B00FCC99000957808120A2D900099780C123A
:10193B000A2D7808790C12034E78081201A0AA0818
:10194B00AB09CCF9CC121B557F08020B0074F312B8
:10195B000ACC900186E0640170057900121B467574
:10196B0008017808120BDF7C007D007A647B00791C
:10197B0004121A8905107901121B4690018178080F
:10198B00120A2D90009D780C120A2D7808790C12F2
:10199B0002877012900181746FF0A37412F0A3741C
:1019AB0083F0A3743AF09001867401F07F08020B68
:1019BB0000C00853A2FE900186E064017005790017
:1019CB00121B467508027808120BDF7C327D007AF9
:1019DB00647B007904121A8905107901121B469059
:1019EB0001867401F0D00853A2FE22E953A2FE90A7
:1019FB000185F053A2FE2274F3120ACC900185E00C
:101A0B006401703A9000957808120A2D9000A17825
:101A1B000C120A2D7808790C1202B3405C900095D9
:101A2B007808120A2D900181780C120A2D7808790A
:101A3B000C1204F39000957808120A3C8038900041
:101A4B00957808120A2D900084780C120A2D7808CC
:101A5B00790C12030240229000957808120A2D90FF
:101A6B000181780C120A2D7808790C1204CE9000A3
:101A7B00957808120A3C1219237F08020B00EEC05E
:101A8B00E0E9FED2DC538EBFEEF452DFEE42DFEA2A
:101A9B00F8EBF9E4C9F8E8F5D1EAF5D9E510F8E285
:101AAB00FAEAA2E0501353B3FB53B4FBECF8EDF995
:101ABB00E4C9F8E8F5D2ECF5DAEAA2E1501353B336
:101ACB00FD53B4FDECF8EDF9E4C9F8E8F5D3ECF50A
:101ADB00DBEAA2E2501353B3FE53B4FEECF8EDF97C
:101AEB00E4C9F8E8F5D4ECF5DCEAA2E3501353B102
:101AFB00FE53B2FEECF8EDF9E4C9F8E8F5D5ECF5D8
:101B0B00DDEAA2E4501353B1FD53B2FDECF8EDF94D
:101B1B00E4C9F8E8F5C4ECF5CCEAA2E5501353B1EF
:101B2B00F753B2F7ECF8EDF9E4C9F8E8F5C5ECF5C5
:101B3B00CDEA42DED0E0FE53A2FE227401697004AE
:101B4B00D2DF8002C2DF53A2FE22EEC0E0E9FEA28A
:101B5B00DE40FCEEA2E0500DEAF8EBF9E4C9F8E840
:101B6B00F5D2EAF5DAEEA2E1500DEAF8EBF9E4C9A9
:101B7B00F8E8F5D3EAF5DBEEA2E2500DEAF8EBF963
:101B8B00E4C9F8E8F5D4EAF5DCEEA2E3500DEAF887
:101B9B00EBF9E4C9F8E8F5D5EAF5DDEEA2E4500D72
:101BAB00EAF8EBF9E4C9F8E8F5C4EAF5CCEEA2E5FE
:101BBB00500DEAF8EBF9E4C9F8E8F5C5EAF5CDD232
:101BCB00DEEEFA7901121BDAD0E0FE53A2FE22748C
:101BDB0001697005EA42DE8004EAF452DE53A2FE8C
:101BEB002274FA120ACCE9FFEAFEEEF9121C0F740A
:101BFB00046F600BEFC454F0543042E843E1027FB2
:101C0B0001020B00E9602114603014604014604D38
:101C1B0014605E14606E14607F147003021CB714A2
:101C2B007003021CCB021CD053E8F043B38053B4B7
:101C3B007F75F60043F601021CD053E8F0D2E8435F
:101C4B00AC0153ADFE75F60043F602807853E8F015
:101C5B00D2E943B18053B27F75F600806853E8F048
:101C6B0043E80343B14053B2BF75F60043F6088017
:101C7B005453E8F0D2EA43B12053B2DF75F6004378
:101C8B00F610804153E8F043E80543B11053B2EF2F
:101C9B0075F60043F620802D53E8F043E80643B178
:101CAB000853B2F775F60043F640801953E8F0433A
:101CBB00E80743B30253B4FD75F60043F680800585
:101CCB00D2EB53E8F853A2FE22740169700543E18D
:101CDB0001800353E1FE53A2FE22A2EE4002D2EE9C
:101CEB0053A2FE22C008C009A2EE40FCE5C3F508D2
:101CFB0075090074047808120AB7E5C2F87900E890
:101D0B00540FF8E95400F9E50848F508E50949F5D9
:101D1B0009AA08AB09D009D00853A2FE22121D95BF
:101D2B001222D51219581214F21213DC7901122255
:101D3B00477900122048120FCC12231853A2FE220F
:101D4B001222B2E9640170077A717B2212213E12D2
:101D5B002075E970077A027B1A12213E7A817B206B
:101D6B0012213E7A857B1812213E7A907B1012212C
:101D7B003E7AA77B1412213E7A2B7B2312213E7ACB
:101D8B009B7B1D12213E53A2FE22D2AF53A2FE22F9
:101D9B0053A2FE9000E7E02401F0A3E03400F090A2
:101DAB0000E7E064F47004A3E0640170117A207919
:101DBB00011222089000E77400F0A37400F053A204
:101DCB00FE22121D28121D4B7BC07A207901122195
:101DDB00C5750800750900750A00750B00800B129C
:101DEB0022F18A088B098C0A8D0B1222F18A0C8B3B
:101DFB000D8C0E8D0F7808790C12010440E105A2B1
:101E0B009000901222F18A0C8B0D8C0E8D0F780C9A
:101E1B007908120A0105A2780C12012450CC122267
:101E2B00F18A088B098C0A8D0B12217780BCC0D0EC
:101E3B00C0A2D0A2D0D032C0D0C0A2D0A2D0D032BB
:101E4B00C0D0C0A2D0A2D0D032C0D0C0A2D0A2D01D
:101E5B00D032C0E074F1120B2815107902121FABAF
:101E6B00E9640170247902121FDDE510FA7B001280
:101E7B0015B6E9F8740168700D121738E510F8E221
:101E8B00F9121FF180031217497901121FABE96494
:101E9B000170147A207901122208121FF7E9F91246
:101EAB0016357901121FDD05107F01020B78C0D0AA
:101EBB00C0A2D0A2D0D032C0D0C0A2D0A2D0D0323B
:101ECB00C0D0C0A2D0A2D0D032C0D0C0A2D0A2D09D
:101EDB00D032C0D0C0A2D0A2D0D032C0D0C0A2D0FD
:101EEB00A2D0D032C0D0C0A2D0A2D0D032C0D0C0ED
:101EFB00A2D0A2D0D032C0D0C0A2D0A2D0D032C0FB
:101F0B00D0C0A2D0A2D0D032C0D0C0A2D0A2D0D04C
:101F1B0032C0E074F1120B281222FE7F01020B7803
:101F2B00C0D0C0A2D0A2D0D03274F3120ACCE9FC3C
:101F3B0053B1BF53B2BF53B17F53B27FECC43333F2
:101F4B0054C04298D29CEC601914600814601314AE
:101F5B006010800E438780438920438E1053C4DF6B
:101F6B00D28E750840750942750A0F750B008A0CE5
:101F7B008B0DE4F50EF50F7808790C12098C7400B3
:101F8B00C39508C39401F58DC298C2997F08020BC3
:101F9B00007401697004D2AC8002C2AC53A2FE2261
:101FAB00E9F879007401687007A298E433F9800AA4
:101FBB007402687005A299E433F953A2FE227401EE
:101FCB00697004D29880077402697002D29953A287
:101FDB00FE227401697004C2988007740269700252
:101FEB00C29953A2FE22899953A2FE22E599F95375
:101FFB00A2FE22EEC0E0EBFE53A2FE9000E6E064F0
:10200B00017007EEF9122027800B9000E6E07005B7
:10201B00EEF91219F6D0E0FE53A2FE22EEC0E0E973
:10202B00FE74016E70097A04790112221D80077A01
:10203B00047901122232D0E0FE53A2FE22EEC0E060
:10204B00E9FE74016E700B7BD07A0479011221C505
:10205B0080031219587BA07A4079011221C5EE90AA
:10206B0000E6F0D0E0FE53A2FE2253A2FE9000E663
:10207B00E0F953A2FE2212234CE9FB7A04790112F8
:10208B001FFE12209453A2FE2212234CE970097AF0
:10209B0040790112221D80077A40790112223253B6
:1020AB00A2FE22E960051460268046EBA2E75016DB
:1020BB00EBA2E65009EAF452B1EA42B28033EA42AB
:1020CB00B1EA42B2802BEA42B1EAF452B28022EB7F
:1020DB00A2E75016EBA2E65009EAF452B3EA42B477
:1020EB00800FEA42B3EA42B48007EA42B3EAF45201
:1020FB00B453A2FE22E960051460078008EA42800F
:10210B008003EA429053A2FE22E960051460088026
:10211B000AEAF452808004EAF4529053A2FE22E9B8
:10212B0060051460078008EA62808003EA629053BE
:10213B00A2FE2253A2FE90017CE0F87900E875F034
:10214B0002A4C8ACF075F000A42CFC75F002E9A455
:10215B002CF9745428F582740139F583EAF0A3EB5A
:10216B00F090017CE02401F053A2FE22EEC0E07E51
:10217B000080337A007B00EEF87900E875F002A45A
:10218B00C8ACF075F000A42CFC75F002E9A42CF996
:10219B00745428F582740139F583E0F8A3E0F583D4
:1021AB008882120ACA0E53A2FE90017CE0F8EEC39D
:1021BB009840C0D0E0FE53A2FE2274FA120ACC89DA
:1021CB0008EAFFEBFEEEFBEFFAA9081220AE7F0147
:1021DB00020B0074FA120ACCE9FFEAFEEEFAEFF9F1
:1021EB001221007F01020B0074FA120ACCE9FFEAFC
:1021FB00FEEEFAEFF91221147F01020B0074FA12B2
:10220B000ACCE9FFEAFEEEFAEFF912212A7F01026E
:10221B000B0074FA120ACCE9FFEAFEEEFAEFF912A0
:10222B0021F37F01020B0074FA120ACCE9FFEAFEDC
:10223B00EEFAEFF91221DE7F01020B00EEC0E0E9AE
:10224B00FE74016E700B7BC07A0179011221C5807F
:10225B0006EE70031219BCEE53A2FE9000E4F0D010
:10226B00E0FE53A2FE2253A2FE9000E4E064017054
:10227B0032900094E064FF70097A0179011221F326
:10228B0080219000E5E02401F0900094E0F89000AC
:10229B00E5E0C398400D9000E57400F07A017901F8
:1022AB0012220853A2FE2253A2FE9000E4E0F9533F
:1022BB00A2FE227A647B0079041223927901122305
:1022CB0081790112237053A2FE2253A2FE90017D4D
:1022DB007400F0A37400F0A37400F0A37400F01268
:1022EB0022BE53A2FE2253A2FE90017D120A4B5333
:1022FB00A2FE2274F7120ACC9000847808120A2DE1
:10230B0090017D78081209EE7F04020B0053A2FEA8
:10231B009001527400F09001537400F053A2FE220E
:10232B001214C4E979007004790080027901122338
:10233B006453A2FE2253A2FE900152E0F953A2FE77
:10234B002253A2FE900153E0F953A2FE22E953A2BD
:10235B00FE900153F053A2FE22E953A2FE900152CC
:10236B00F053A2FE22740169700543C40880035325
:10237B00C4F753A2FE227401697005439C028003CB
:10238B00539CFD53A2FE22C008C009740759F8E5FF
:10239B00C454F848F5C474FFC39AF50874FF9BF551
:1023AB000974087808120AA7E508F5C674FFC39AE2
:1023BB00F5C5D009D00853A2FE2212008E2280FE52
:0000CD0132
:00000001FF
