:060000000200CD021814FD
:03000B0002181DBB
:03001300021826AA
:03001B0002182F99
:0300230002183888
:03002B0002188D2B
:030033000218961A
:03003B0002189F09
:030043000218A8F8
:03004B000218B1E7
:030053000218BAD6
:03005B000218C3C5
:030063000218CCB4
:03006B000218D5A3
:030073000218DE92
:03007B000218E781
:030083000218F070
:10008B000218FF021F48E49000A978C2790280028F
:10009B00F0A3D8FCD9FA7A807B009000DF782A791C
:1000AB00018015E493A3AD82AE838A828B83F0A388
:1000BB00AA82AB838D828E83D8E9D9E71219741289
:1000CB001F4475D0007581BF75108075910053A2C8
:1000DB00FE020091010000000A0000000F0000006A
:1000EB000400000010000000020B00000000008064
:1000FB003F0000C842000000000000803FC3E796AD
:10010B000809E7960809E7960809E79622C3E096DF
:10011B0008A3E09608A3E09608A3E09622C008C3C4
:10012B00E096F50808A3E096420808A3E09642087B
:10013B0008A3E09645087001D3D00822E9799EC642
:10014B0008CAC608CBC608CCC6C370207996CACBE2
:10015B00CC7019798ECBCC70137986CC700EF9805C
:10016B002ACA33CACB33CBCC33CC331930E7F2CCDE
:10017B00CBCA3350147004EA30E00DE4CA3ACACB50
:10018B003BCBCC3CCC500209C3E913C6CC18231390
:10019B00C6CB18C6CA18C6F9221201E420F01430D7
:1001AB00E72B74FFFCFBFA747F8022E4FCFBFA74F0
:1001BB0080801AB48008BC00F2BB00EF800F50EBBC
:1001CB00F9E4C39AFAE49BFBE49CFCE499C6CC18D3
:1001DB00C6CB18C6CA18C6F922E4C9C608CAC608CF
:1001EB00CBC6D3330308CCC63392F0C3947F402ED7
:1001FB0094184019C9B90704CACBCC225025C3099E
:10020B00CA33CACB33CBCC33CC33D9F422F4600D05
:10021B00C9CCC313CB13CBCA13CAD9F6CC22E4FC7B
:10022B00FBFA2214FCFBFA22E6261846184618465F
:10023B0022E72719471947194722181818E60846C5
:10024B00087009E626087005E633F422082219190E
:10025B0019E70947097009E727097005E733F42205
:10026B000922E6084608C3134608336002E633F456
:10027B0022E7094709C3134709336002E733F42226
:10028B0012026D602512027C602012023370030291
:10029B00023C080808E76670101819E766700A1820
:1002AB0019E76670041819E76622F42212026D60D2
:1002BB001C12027C6017120233700712023C700191
:1002CB00D322C0D012023C7006D0D0B322C322334B
:1002DB00D0D0501430E0F6C3E7960809E79608092A
:1002EB00E7960809E796B32220E0D5E6970809E6DA
:1002FB00970809E6970809E697B32212026D601B6F
:10030B0012027C6016120233700712023C600CB3AF
:10031B0022C0D012023C7005D0D022C32233D0D0E1
:10032B00501330E0EBC3E7960809E7960809E79608
:10033B000809E7962220E0E4E6970809E697080902
:10034B00E6970809E697220012026D604F12027CB5
:10035B006012E7548066F6120245701112023C706F
:10036B003B090909F4F618F618F618F62212025989
:10037B00701512023308080860EAE6447FF6187617
:10038B008018E4F618F622120233601612023C7043
:10039B0012E4F608F608F608E65480F6090909187F
:1003AB00181822EAC0E0EBC0E0ECC0E0EDC0E0E6DC
:1003BB0087F0A4FBACF008E687F0A42CFCE435F046
:1003CB00FA1809E687F0A42C4B60027401CA35F0C9
:1003DB00FCE433FB09E687F0D2F7A42CCB35F0FC19
:1003EB001908E687F0A42BCC35F0FBE433FD081994
:1003FB00E687F0D2E7A42C4ACB35F0CD3400FC09CC
:10040B00E687F0D2E7A42DCC35F0FDE433FA0918DA
:10041B00E687F0D2F7A42CCD35F0CA3400FC08E601
:10042B0087F0D2E7D2F7A42ACC35F07A7E20E70BFF
:10043B000ACB33CBCD33CDCC33CC33CB3350147041
:10044B0004ED30E00ED2F1E4CD3DCDCC3CCC3B50B5
:10045B0005DA05C2F1EB547FC63308E63392F0FBA5
:10046B00E73309E733C39A502D2B70190C0D4C4D04
:10047B0070151806E608C333700D20F10AA2F013AD
:10048B00F6E418800B4024E4F630F002768018F680
:10049B0018F618F68024D33B14501074FFA2F013F7
:1004AB00F6187680E418F618F6800FA2F013F618FB
:1004BB00E63303F618ECF618EDF6D0E0FDD0E0FCD1
:1004CB00D0E0FBD0E0FA2212027C604612026D6093
:1004DB003DE9687008F618F618F618F6227480676E
:1004EB00F7120506090909748067F72212026D607D
:1004FB001D12027C7005191919801A120245701F02
:10050B00120259C37003E6673319191940071818FB
:10051B00182208080874FFF618F618F618F62212B7
:10052B000259601712023C702192F01202337019BB
:10053B00501720F014080808090909E7F61819E7FD
:10054B00F61819E7F61819E7F62212023360E6E8F7
:10055B0069701F0808E62480F608E436F618547F05
:10056B00B47F0CE654806007F6E418F618F62218F0
:10057B001822E9C6CC08C6CD08C6CE08C6CFC0E047
:10058B00E8C0E0EAC0E0EBC0E009E9F809E7FA09E6
:10059B00E7FBE6F918E6F8C3EC98ED99EE9AEBC297
:1005AB00E7F5F0EFC2E795F0500E600CEBCFFBEAEE
:1005BB00CEFAE9CDF9E8CCF8EAA2E7D2E7FAEB33C9
:1005CB00FB13F5F0EEA2E7D2E7FEEF33FFC5F01316
:1005DB00A2E730E601B313C5F0C3C0E0C0F07F0063
:1005EB00C39BFB605E9418600F401D14601AD0E033
:1005FB0023F9D0E0F80206D88AF0E9486003D2F07C
:10060B00E4AFF0FAF9F8803BEB30E40D89F0EA60E7
:10061B0003D2F0E4AFF0F9CAF8EB30E30D88F0EF5A
:10062B006002D2F0AFF0E4CAC9F8EB54076014FBD8
:10063B00C3EA13FAE913F9E813F8EF135002D2E007
:10064B00FFDBEDD0E0C0E030E739C3E49FFFF5F00E
:10065B00EC98FC42F0ED99FD42F0EE9AFE42F0D0A0
:10066B00E0F9D0E0F8E5F0607AE923F9EE20E74213
:10067B00D8028067C3EF33FFEC33FCED33FDEE3371
:10068B00FE80EAEC28FCED39FDEE3AFED0E023F9D2
:10069B00D0E0F84002801BC3EE13FEED13FDEC130C
:1006AB00FCEF135002D2E0FF08B800067F7F74FF07
:1006BB00802EEF3350178CF020F00260100CBC0032
:1006CB000C0DBD00080EBE000408E860DFE933E83E
:1006DB0013FFEE2313FE4F4D4C8008E95480FFE4CB
:1006EB00FEFDFCEE33EF33F47004FCFD7E80D0E0B6
:1006FB00FBD0E0FAD0E0F8D0E0CFC618CEC618CDCC
:10070B00C618CCC6F92212026D70041818182212E2
:10071B00027C700D74FFF61819F61819F61819F6F5
:10072B0022E7548066F6120233700F12023C70F00F
:10073B0014F608F608F608F680D112023C700CF697
:10074B0008F608768008E6447F80EC12025C700C99
:10075B0012024860BFE65480F6E480BB1202487078
:10076B000519191980A5E869700C763F1876801861
:10077B00F618F6E8F922E6CDC0E018ECC0E0E63357
:10078B00CD33CDD313F6E719FCE7191933CC33C3AB
:10079B00947F400ECD9D502408E65480F6E418F665
:1007AB00800FF4043D14501408E6447FF61876804D
:1007BB00E418F618F6D0E0FCD0E0FD22CCD313CC35
:1007CB00FD18E4C6CBC0E018E4C6CAC0E00808EDCB
:1007DB0008C633E613F618E433C675F003C3CA979D
:1007EB00CA09CB97CB199C40047D08802EBD000312
:1007FB000208BA16B6FF050606081618C3CA33CA8E
:10080B00CB33CB33CA27CA09CB37CB193CC37D08B3
:10081B00803E187D0820E75CC633C6CA33CACB338B
:10082B00CB33DDF1D5F0EB30E77BCA97CA09CB9719
:10083B004ACB199C406F4B7025E620E0218066184F
:10084B007D08C3CA97CA09CB97CB199CD3C633C6AD
:10085B00CA33CACB33CB3350C9DDE7D5F0E1D3E490
:10086B00C636C608C636C608C636C608C636C61845
:10087B0018188031C3CA97CA09CB97CB199CB340C0
:10088B0097C633C6CA33CACB33CB33DD34D5F02E40
:10089B00C6A2E0C640C8CA27CA09CB37194A70BEE0
:1008AB00CB3CB480B90808E63308E633601F181850
:1008BB0018D0E0FAD0E0FBD0E0FCD0E0FD22187DB0
:1008CB0008CA27CA09CB37CB193CD3808013F6183B
:1008DB00E4B67F11F618B6FF0EF618C60470D208F0
:1008EB0008768080CAF618F618F680C5E4CFC0E00B
:1008FB00E4CEC0E0E4CDC0E0E4CCC0E075F020E68F
:10090B0026F608E633F608E633F608E633F618184B
:10091B0018EC33FCED33FDEE33FEEF33FFC3EC97F6
:10092B0009ED9709EE9709EF97191919400FFFEC8D
:10093B0097FC09ED97FD09EE97FE191906D5F0BF47
:10094B00ECF709EDF709EEF709EFF7191919D0E0F4
:10095B00FCD0E0FDD0E0FED0E0FF221209CE18184B
:10096B00181208F71209BD191919221209BD191904
:10097B0019080808E618181820E7E01208F71209FA
:10098B00CE18181822090909E719191920E7DC08EC
:10099B000808E618181820E7030208F71209CE1802
:1009AB0018181208F71209CE1818181209BD1919C0
:1009BB001922E4C397F709E497F709E497F709E4D9
:1009CB0097F722E4C396F608E496F608E496F60841
:1009DB00E496F622E026F608A3E036F608A3E03606
:1009EB00F608A3E036F622E026F008A3E036F0087E
:1009FB00A3E036F008A3E036F022C3E697F6080929
:100A0B00E697F60809E697F60809E697F622C3E09B
:100A1B00C696F608A3E0C696F608A3E0C696F608B7
:100A2B00A3E0C696F622E0F608A3E0F608A3E0F6EC
:100A3B0008A3E0F622E6F008A3E6F008A3E6F00828
:100A4B00A3E6F022E0FAA3E0FBA3E0FCA3E0FD2287
:100A5B00E0F8A3E0F9A3E0FAA3E0FB22E8F0A3E9B6
:100A6B00F0A3EAF0A3EBF022CAC0E0E6F30908DA40
:100A7B00FAD0E0FA22CAC0E0E2F30908DAFAD0E0D1
:100A8B00FA22CAC0E0E2F0A308DAFAD0E0FA22CAEE
:100A9B00C0E0E0A305A2F0A305A2DAF6D0E0CA22DB
:100AAB00600D08C6A2E713C618C613C6D5E0F3221D
:100ABB00700422600D18C6C333C608C633C6D5E012
:100ACB00F41822E47353A2FED083D0822510F8C50C
:100ADB0010C39824FBCEF208E520F208E9C0E079B8
:100AEB0008E709F208DEFAD0E0F9EFF208D0E0FEF1
:100AFB00D0E0F208EEF208E473A810E2FE08E20878
:100B0B00F520E9C0E07908E208F709DFFAE208FF0F
:100B1B00D0E0F9E208C0E0E208C0E0881053A2FE82
:100B2B0022C0D0C0F088F02510F8C510C39824F26D
:100B3B00C0E0E5F0F208E9F208EAF208EBF208D0BF
:100B4B00E0FB7908E709F208DBFAE5A2F20853A209
:100B5B00FEE582F208E583F208D0E0F208D0E0F27D
:100B6B0008E520F208ECF208EDF208EEF208EFF2DD
:100B7B0022A810E208C0E0E208C0E0E208FAE208AE
:100B8B00FB7908E208F709DFFAE2F5F00853A2FE59
:100B9B00E208F582E208F58385F0A2E208F5F0E2BF
:100BAB0008F5D0E208F520E208FCE208FDE208FEB9
:100BBB00E208FF8810D0E0F9D0E0F8D0E03205A2CF
:100BCB00E582F208E583F253A2FE2205A2E208F5C4
:100BDB0082E2F58353A2FE227401C9C0E0E510C383
:100BEB0099F510C9120A73D0E0F922C9C0E0E510DB
:100BFB00C399F510C9120A80D0E0F92274F7120AD2
:100C0B00D015101510A810120BC99000DDC3E0947D
:100C1B00E8A3E094035003020CF61217DB8A088B4F
:100C2B0009AE08AF091217D1EEFAEFFB120D7E8A4F
:100C3B00088B09AE08AF09EEFAEFFB120E098A0812
:100C4B008B09AE08AF09EEFAEFFB120E66E9F874EA
:100C5B00016870629000C97808120A319000C5785B
:100C6B000812011850429000C905A29000C57808DF
:100C7B00120A3190008C78081209DF05A27808124D
:100C8B00012840149000C17400F0A37400F0A37409
:100C9B0000F0A37400F080109000807808120A31E5
:100CAB009000C178081209F29000C9120A5B9000FB
:100CBB00C5120A6780309000C905A29000C578085C
:100CCB00120A3190008C78081209DF05A2780812FD
:100CDB00012840129000C17400F0A37400F0A374BB
:100CEB0000F0A37400F0120D1C80189000DDE024BE
:100CFB0001F0A3E03400F09000C9120A5B9000C52C
:100D0B00120A67A810120BD6051005107F04020BF0
:100D1B000474F7120AD015101510A810120BC990F5
:100D2B0000887808120A319000C178081201185017
:100D3B00089000C07400F0802C90008405A29000F5
:100D4B00C17808120A319000907808120A1905A28E
:100D5B00780812012840089000C07401F0800690BA
:100D6B0000C07402F0A810120BD6051005107F04FA
:100D7B00020B0474F3120AD08A088B09E4F50AF506
:100D8B000B78081201479000D5780C120A317808BD
:100D9B00790C120352C008C009C00AC00B750800B9
:100DAB00750900750A80750B3F9000D5780C120AF7
:100DBB00317808790C1204D29000DFE0F50CA3E037
:100DCB00F50DE4F50EF50F780C1201477808790C48
:100DDB00120352D00FD00ED00DD00C780C79081214
:100DEB0004F7780C1201A49000DFE50CF0A3E50DDD
:100DFB00F09000DFE0FAA3E0FB7F08020B0474F332
:100E0B00120AD09000E3E02AFCA3E03BFD9000E146
:100E1B00E0F8A3E0F9ECC398F508ED99F509E4F5D2
:100E2B000AF50B78081201479000D5780C120A319D
:100E3B007808790C12035278081201A49000E3E5AC
:100E4B0008F0A3E509F09000E1EAF0A3EBF09000C5
:100E5B00E3E0FAA3E0FB7F08020B0474FA120AD05A
:100E6B0075080078017900EA2428FEE43BFF900026
:100E7B00E5E0FCA3E0FDC3EE9CEF9D50119000E775
:100E8B00E06508702BE89000E7F079018022900074
:100E9B00E5E02428FCA3E03400FDC3EC9AED9B5065
:100EAB000F9000E7E0687008E5089000E7F0790123
:100EBB009000E5EAF0A3EBF07F01020B0474F31250
:100ECB000AD07A0579041216D879011217C01217B5
:100EDB00D19000CD7468F0A37413F0A3748BF0A3BE
:100EEB00743AF09000D1746FF0A37412F0A3748372
:100EFB00F0A3743AF09000D17808120A31C008C000
:100F0B0009C00AC00B9000CD780C120A319000D1A9
:100F1B007808120A31780C79081204F7D00BD00A32
:100F2B00D009D0087808790C1207119000D57808F1
:100F3B00120A409000D9741DF0A3749DF0A374D0D5
:100F4B00F0A3743AF09000D17808120A31C008C0AF
:100F5B0009C00AC00B9000D9780C120A319000D14D
:100F6B007808120A31780C79081204F7D00BD00AE2
:100F7B00D009D0087808790C1207119000D57808A1
:100F8B00120A407F08020B0474F7120AD0900080FB
:100F9B007808120A319000C978081209F2120C076E
:100FAB007F04020B0453A2FE9000C0E0F953A2FE93
:100FBB0022EEC0E0E9FEEEF9121B1BD0E0FE53A2BD
:100FCB00FE22EEC0E0E9FEEEF9121B1BD0E0FE5351
:100FDB00A2FE227A007B967901121AB37902121BB8
:100FEB005C7901121B5C7BE07A207900121D44793D
:100FFB0001121B1B7A207900121D7253A2FE22EEE6
:10100B00C0E0E9FE53A2FE900224C3E09480A3E06B
:10101B00940050F0EEFC7D00900220E0F8A3E0F984
:10102B00E875F002A4C8AAF075F000A42AFA75F0CE
:10103B0002E9A42AF9742028F582740139F583ECAE
:10104B00F0A3EDF0900220E02401F0A3E03400F0D7
:10105B00900220C3E09480A3E09400400A90022009
:10106B007400F0A37400F07900120FBC900224E01E
:10107B002401F0A3E03400F0900224E0640170043A
:10108B00A3E0640070057902121B487901120FBCB2
:10109B00D0E0FE53A2FE2253A2FE900224E0F8A35E
:1010AB00E0F9E849700479008068900222E0F8A327
:1010BB00E0F9E875F002A4C8ACF075F000A42CFCC4
:1010CB0075F002E9A42CF9742028F582740139F526
:1010DB0083E0F8A3E0F9E8C0E08A828B83D0E0F0EC
:1010EB00900224E024FFF0A3E034FFF0900222E012
:1010FB002401F0A3E03400F0900222E0648070043D
:10110B00A3E06400700A9002227400F0A37400F054
:10111B00790153A2FE2253A2FE900268E0C3948091
:10112B005034E9C0E0900266E0FA7B0074262AF5A1
:10113B008274023BF583D0E0F0900268E02401F06A
:10114B00900266E02401F0900266E0C394404006F2
:10115B009002667400F053A2FE2253A2FE90026826
:10116B00E0700479008043900267E0F87900742600
:10117B0028F582740239F583E0C0E08A828B83D034
:10118B00E0F07900120FCD900268E024FFF07901B6
:10119B00120FCD900267E02401F0900267E06440EB
:1011AB0070069002677400F0790153A2FE2274F965
:1011BB00120AD015101510A810120BC905A28A829D
:1011CB008B83ECFEEDFF750800750900802A43A2A6
:1011DB0001E582250805A2F58205A2E583350905FF
:1011EB00A2F583E0F912100A0508E508700205095B
:1011FB00EE24FFFEEF34FFFFEE4F70D2A81053A288
:10120B00FE120BD6051005107F02020B0453A2FE33
:10121B00900268E0F953A2FE227A207900121D5D3C
:10122B009002697401F053A2FE2253A2FE90026950
:10123B007400F07A207900121D7253A2FE2253A281
:10124B00FE9000BFE0C3940540047900804DE5108B
:10125B00F89000BDE0FA7B00EA75F004A4CAA9F08F
:10126B0075F000A429F975F004EBA429FB74A92AE5
:10127B00F58274003BF5837404120A8D9000BDE077
:10128B002401F09000BFE02401F09000BDE0C39476
:10129B000540069000BD7400F0790153A2FE224375
:1012AB00A201C082C08305A29000BFE07004790048
:1012BB0080528A828B8305A29000BEE0F87900E809
:1012CB0075F004A4C8AAF075F000A42AFA75F0040E
:1012DB00E9A42AF974A928F582740039F5837404FA
:1012EB00120A9A05A29000BEE02401F09000BFE024
:1012FB0024FFF09000BEE0C3940540069000BE743E
:10130B0000F0790105A2D083D08253A2FE22E51012
:10131B0024FCF51074FAC0E0E510F8D0E0F2E5100B
:10132B002405F8E2C0E0E5102401F8D0E0F2E51066
:10133B002406F8E2C0E0E5102402F8D0E0F2E51054
:10134B002407F8E2C0E0E5102403F8D0E0F27C04B7
:10135B007D00E510FA7B001211B905100510051080
:10136B00051053A2FE22E51024FBF510806FE5104B
:10137B00F8E264FA7067E510F8E2C0E0E5102401CA
:10138B00F8D0E0F2E510FA7B00121165E9E510F8F0
:10139B00E2C0E0E5102402F8D0E0F2E510FA7B00A1
:1013AB00121165E9E510F8E2C0E0E5102403F8D06E
:1013BB00E0F2E510FA7B00121165E9E510F8E2C0E6
:1013CB00E0E5102404F8D0E0F2E5102401F87404F1
:1013DB00120BF6121249E5102404F510E91212183B
:1013EB00E9C394044010E510FA7B00121165E9641F
:1013FB000170030213790510051005100510051077
:10140B0053A2FE2274F3120AD07901C9FCC99000D1
:10141B00997808120A3190009D780C120A317808DD
:10142B00790C12035278081201A4AA08AB09CCF963
:10143B00CC1216417F08020B0474F3120AD09001F0
:10144B001FE06401700579001216327508017808E7
:10145B00120BE37C007D007A647B00790412157516
:10146B000510790112163290011A7808120A319080
:10147B0000A1780C120A317808790C12028B7012C9
:10148B0090011A746FF0A37412F0A37483F0A37419
:10149B003AF090011F7401F07F08020B04C008534F
:1014AB00A2FE90011FE064017005790012163275DF
:1014BB0008027808120BE37C327D007A647B00799A
:1014CB00041215750510790112163290011F740163
:1014DB00F0D00853A2FE22E953A2FE90011EF05356
:1014EB00A2FE2274F3120AD090011EE06401703A3E
:1014FB009000997808120A319000A5780C120A31E5
:10150B007808790C1202B7405C9000997808120A9F
:10151B003190011A780C120A317808790C1204F701
:10152B009000997808120A40803890009978081238
:10153B000A31900080780C120A317808790C12036A
:10154B000640229000997808120A3190011A780C03
:10155B00120A317808790C1204D29000997808128B
:10156B000A4012140F7F08020B04EEC0E0E9FED212
:10157B00DC538EBFEEF452DFEE42DFEAF8EBF9E418
:10158B00C9F8E8F5D1EAF5D9E510F8E2FAEAA2E0F4
:10159B00501353B3FB53B4FBECF8EDF9E4C9F8E883
:1015AB00F5D2ECF5DAEAA2E1501353B3FD53B4FDD7
:1015BB00ECF8EDF9E4C9F8E8F5D3ECF5DBEAA2E2D7
:1015CB00501353B3FE53B4FEECF8EDF9E4C9F8E84D
:1015DB00F5D4ECF5DCEAA2E3501353B1FE53B2FEA3
:1015EB00ECF8EDF9E4C9F8E8F5D5ECF5DDEAA2E4A1
:1015FB00501353B1FD53B2FDECF8EDF9E4C9F8E823
:10160B00F5C4ECF5CCEAA2E5501353B1F753B2F79E
:10161B00ECF8EDF9E4C9F8E8F5C5ECF5CDEA42DEF6
:10162B00D0E0FE53A2FE227401697004D2DF800267
:10163B00C2DF53A2FE22EEC0E0E9FEA2DE40FCEECA
:10164B00A2E0500DEAF8EBF9E4C9F8E8F5D2EAF5B7
:10165B00DAEEA2E1500DEAF8EBF9E4C9F8E8F5D3BC
:10166B00EAF5DBEEA2E2500DEAF8EBF9E4C9F8E893
:10167B00F5D4EAF5DCEEA2E3500DEAF8EBF9E4C998
:10168B00F8E8F5D5EAF5DDEEA2E4500DEAF8EBF952
:10169B00E4C9F8E8F5C4EAF5CCEEA2E5500DEAF89A
:1016AB00EBF9E4C9F8E8F5C5EAF5CDD2DEEEFA7947
:1016BB00011216C6D0E0FE53A2FE2274016970051A
:1016CB00EA42DE8004EAF452DE53A2FE2274FA12DE
:1016DB000AD0E9FFEAFEEEF91216FB74046F600BF9
:1016EB00EFC454F0543042E843E1027F01020B0493
:1016FB00E9602114603014604014604D14605E1476
:10170B00606E14607F1470030217A314700302172A
:10171B00B70217BC53E8F043B38053B47F75F600A0
:10172B0043F6010217BC53E8F0D2E843AC0153ADCA
:10173B00FE75F60043F602807853E8F0D2E943B128
:10174B008053B27F75F600806853E8F043E803439B
:10175B00B14053B2BF75F60043F608805453E8F01E
:10176B00D2EA43B12053B2DF75F60043F610804145
:10177B0053E8F043E80543B11053B2EF75F600435D
:10178B00F620802D53E8F043E80643B10853B2F737
:10179B0075F60043F640801953E8F043E80743B36E
:1017AB000253B4FD75F60043F6808005D2EB53E887
:1017BB00F853A2FE22740169700543E101800353C3
:1017CB00E1FE53A2FE22A2EE4002D2EE53A2FE2273
:1017DB00C008C009A2EE40FCE5C3F508750900740A
:1017EB00047808120ABBE5C2F87900E8540FF8E94F
:1017FB005400F9E50848F508E50949F509AA08ABCD
:10180B0009D009D00853A2FE22C0D0C0A2D0A2D0CA
:10181B00D032C0D0C0A2D0A2D0D032C0D0C0A2D0C3
:10182B00A2D0D032C0D0C0A2D0A2D0D032C0E074EF
:10183B00F1120B2C15107902121B2AE9640170248A
:10184B007902121B5CE510FA7B001210A2E9F87406
:10185B000168700D121224E510F8E2F9121B70806A
:10186B00031212357901121B2AE96401700D121B48
:10187B0076E9F91211217901121B5C05107F010227
:10188B000B7CC0D0C0A2D0A2D0D032C0D0C0A2D0CE
:10189B00A2D0D032C0D0C0A2D0A2D0D032C0D0C043
:1018AB00A2D0A2D0D032C0D0C0A2D0A2D0D032C051
:1018BB00D0C0A2D0A2D0D032C0D0C0A2D0A2D0D0A3
:1018CB0032C0D0C0A2D0A2D0D032C0D0C0A2D0A241
:1018DB00D0D032C0D0C0A2D0A2D0D032C0D0C0A203
:1018EB00D0A2D0D032C0E074F1120B2C121E7D7F2F
:1018FB0001020B7CC0D0C0A2D0A2D0D03212192BC7
:10190B00121E54121444120FDE120EC87901121D4E
:10191B00C67900121BC7121A7D121E9753A2FE2204
:10192B00D2AF53A2FE22121E31E9640170077AF086
:10193B007B1D121CBD121BF4E970077AEE7B14128F
:10194B001CBD7A007B1C121CBD7A717B13121CBD53
:10195B007A817B1A121CBD7A937B0F121CBD7AAA5B
:10196B007B1E121CBD53A2FE221219081219317BC9
:10197B00A07A207901121D447A207901121DB175CC
:10198B000800750900750A00750B00800B121E709C
:10199B008A088B098C0A8D0B121E708A0C8B0D8C8E
:1019AB000E8D0F7808790C12010840E105A290000A
:1019BB0095121E708A0C8B0D8C0E8D0F780C79087E
:1019CB00120A0505A2780C12012850CC121E708A3F
:1019DB00088B098C0A8D0B121CF680BC74FA120A48
:1019EB00D0E51024FCF510E9FEEAFF8B08EEC0E011
:1019FB00E5102401F8D0E0F2EFC0E0E5102402F886
:101A0B00D0E0F2E508C0E0E5102403F8D0E0F2E501
:101A1B0010F87404120BF6121319E5102404F510C8
:101A2B0005100510051005107F01020B04E51024AD
:101A3B0001F8E264027037E5102402F8E260092431
:101A4B00FE60211460108026121EBFE9FB7A01791B
:101A5B00021219E78018121EBFE9FB7A04790212F1
:101A6B0019E7800AE5102403F8E2F9121ED753A2F6
:101A7B00FE2253A2FE22E51024FCF5108011E51086
:101A8B00F87404120BF6121A38E5102404F510E55D
:101A9B0010FA7B001212AAE9640160E2051005102E
:101AAB000510051053A2FE2274F3120AD0E9FC5361
:101ABB00B1BF53B2BF53B17F53B27FECC433335476
:101ACB00C04298D29CEC6019146008146013146027
:101ADB0010800E438780438920438E1053C4DFD27E
:101AEB008E750840750942750A0F750B008A0C8BB1
:101AFB000DE4F50EF50F7808790C1209907400C3FC
:101B0B009508C39401F58DC298C2997F08020B0406
:101B1B007401697004D2AC8002C2AC53A2FE22E9FC
:101B2B00F879007401687007A298E433F9800A749D
:101B3B0002687005A299E433F953A2FE227401697D
:101B4B007004D29880077402697002D29953A2FE76
:101B5B00227401697004C29880077402697002C212
:101B6B009953A2FE22899953A2FE22E599F953A219
:101B7B00FE22EEC0E0EBFE53A2FE9000EAE0640111
:101B8B007007EEF9121BA6800B9000EAE07005EED1
:101B9B00F91214E2D0E0FE53A2FE22EEC0E0E9FE01
:101BAB0074016E70097A047901121D9C80077A0406
:101BBB007901121DB1D0E0FE53A2FE22EEC0E0E986
:101BCB00FE74016E700B7BD07A047901121D448078
:101BDB00031214447BA07A407901121D44EE90004D
:101BEB00EAF0D0E0FE53A2FE2253A2FE9000EAE000
:101BFB00F953A2FE22121ECBE9FB7A047901121BC8
:101C0B007D121C1353A2FE22121ECBE970097A40DF
:101C1B007901121D9C80077A407901121DB153A2E4
:101C2B00FE22E960051460268046EBA2E75016EB16
:101C3B00A2E65009EAF452B1EA42B28033EA42B169
:101C4B00EA42B2802BEA42B1EAF452B28022EBA212
:101C5B00E75016EBA2E65009EAF452B3EA42B4801D
:101C6B000FEA42B3EA42B48007EA42B3EAF452B451
:101C7B0053A2FE22E960051460078008EA428080C7
:101C8B0003EA429053A2FE22E96005146008800A21
:101C9B00EAF452808004EAF4529053A2FE22E960E7
:101CAB00051460078008EA62808003EA629053A201
:101CBB00FE2253A2FE900115E0F87900E875F002C0
:101CCB00A4C8ACF075F000A42CFC75F002E9A42CB0
:101CDB00F974ED28F582740039F583EAF0A3EBF083
:101CEB00900115E02401F053A2FE22EEC0E07E002D
:101CFB0080337A007B00EEF87900E875F002A4C817
:101D0B00ACF075F000A42CFC75F002E9A42CF9746E
:101D1B00ED28F582740039F583E0F8A3E0F58388AC
:101D2B0082120ACE0E53A2FE900115E0F8EEC39874
:101D3B0040C0D0E0FE53A2FE2274FA120AD08908EA
:101D4B00EAFFEBFEEEFBEFFAA908121C2D7F010256
:101D5B000B0474FA120AD0E9FFEAFEEEFAEFF9125D
:101D6B001C7F7F01020B0474FA120AD0E9FFEAFE12
:101D7B00EEFAEFF9121C937F01020B0474FA120AAC
:101D8B00D0E9FFEAFEEEFAEFF9121CA97F01020B74
:101D9B000474FA120AD0E9FFEAFEEEFAEFF9121D0B
:101DAB00727F01020B0474FA120AD0E9FFEAFEEE0D
:101DBB00FAEFF9121D5D7F01020B04EEC0E0E9FEA4
:101DCB0074016E700B7BC07A017901121D44800681
:101DDB00EE70031214A8EE53A2FE9000E8F0D0E0D0
:101DEB00FE53A2FE2253A2FE9000E8E06401703283
:101DFB00900094E064FF70097A017901121D7280E2
:101E0B00219000E9E02401F0900094E0F89000E9C3
:101E1B00E0C398400D9000E97400F07A017901124B
:101E2B001D8753A2FE2253A2FE9000E8E0F953A2B5
:101E3B00FE227A647B007904121F117901121F00B4
:101E4B007901121EEF53A2FE2253A2FE90011674CB
:101E5B0000F0A37400F0A37400F0A37400F0121E42
:101E6B003D53A2FE2253A2FE900116120A4F53A21B
:101E7B00FE2274F7120AD09000807808120A319073
:101E8B00011678081209F27F04020B0453A2FE908C
:101E9B0000EB7400F09000EC7400F053A2FE2212E1
:101EAB000FB0E979007004790080027901121EE30A
:101EBB0053A2FE2253A2FE9000EBE0F953A2FE22A6
:101ECB0053A2FE9000ECE0F953A2FE22E953A2FECE
:101EDB009000ECF053A2FE22E953A2FE9000EBF02F
:101EEB0053A2FE22740169700543C408800353C4D6
:101EFB00F753A2FE227401697005439C02800353C1
:101F0B009CFD53A2FE22C008C009740759F8E5C412
:101F1B0054F848F5C474FFC39AF50874FF9BF50990
:101F2B0074087808120AABE508F5C674FFC39AF576
:0F1F3B00C5D009D00853A2FE2212008E2280FECC
:0000CD0132
:00000001FF
